:020000040000FA
:06000000FEEF1EF01200ED
:020006001200E6
:060008000BEF1DF01200D9
:02000E000000F0
:060010001827182700006C
:020016000204E2
:0600180012EF1DF01200C2
:02001E000200DE
:100020001600000072000000020000000E00000038
:080030006A0000000800000056
:08003800D9CFE6FFE1CFD9FFAB
:10004000020EE1260F010D6B0E6B136BF3EC10F03B
:10005000D768FE0ED66ED58E84B606D0F2A4FCD735
:10006000D768D66AF294F8D797EC1CF0020EE15CE0
:1000700002E2E16AE552E16EE552E7CFD9FF1200F4
:10008000D9CFE6FFE1CFD9FF070EE126D650010B0D
:10009000E76E020EE7CFDBFF030E006E246ED6CFB5
:1000A0001FF00CEC1FF0010E1BC0DBFF050E006EF5
:1000B000246ED6CF1FF00CEC1FF01F50DF6E010E28
:1000C000DB500FE0030EDB6A040EDB6A340EF36EC6
:1000D000050EF3CFDBFF430EF36E060EF3CFDBFF0F
:1000E00008D0030EDB6A040EDB6A050EDB6A060E1F
:1000F000DB6A020EDB5001E0DF6C030EDBCF00F0A9
:10010000040EDBCF01F0050EDBCF02F0060EDBCFD5
:1001100003F0DFCF08F008C01FF0F5EC15F01DC0AC
:1001200004F01EC005F01FC006F020C007F01DC07F
:1001300022F01EC023F01FC024F020C025F000C014
:100140001DF001C01EF002C01FF003C020F005EC3E
:1001500016F0030E1DC0DBFF040E1EC0DBFF050EF4
:100160001FC0DBFF060E20C0DBFF0F01006B016B21
:10017000800E026F420E036F046B056B066B076FF8
:10018000030EDBCF08FF040EDBCF09FF050EDBCF2C
:100190000AFF060EDBCF0BFF0C6B0001180E6C6F15
:1001A000270E6D6F180E6E6F270E6F6F010EE66EC5
:1001B0007AEC09F0E552020EE66E7AEC09F0E552AF
:1001C000070EE15C02E2E16AE552E16EE552E7CF3B
:1001D000D9FF1200D9CFE6FFE1CFD9FF050EE12606
:1001E0000F01010E136F0C5102E15CEF08F000CF1C
:1001F0001DF001CF1EF002CF1FF003CF20F008EC5E
:1002000017F0030E1FC0DBFF04CF1DF005CF1EF05B
:1002100006CF1FF007CF20F008EC17F0040E1FC028
:10022000DBFFDB500B0804E0040EDB500A0814E18E
:10023000160EF36E030EDBCFF4FFF350F45C04E212
:100240000F01010E0D6F2ED0030EDB5069082AE25C
:100250000F01010E0E6F26D00F010D050EE1040EE9
:10026000DB500D0804E3030EDB50160806E20D6BAD
:10027000010EE66E8DEC08F0E5520F010E0512E15D
:10028000040EDB500D0808E3690EF36E030EDBCF9E
:10029000F4FFF350F45C06E20E6B020EE66E8DEC9A
:1002A00008F0E552030EDB0413E100016C51F36E1C
:1002B000040EDBCFF4FFF350F45C0AE3040EDBCF53
:1002C00000F06D51D880005403E3DE52010E16D0C9
:1002D000030EDB507E0814E100016E51F36E040E34
:1002E000DBCFF4FFF350F45C0BE3040EDBCF00F044
:1002F0006F51D880005404E3DE52020EDD6E02D04E
:10030000010EDB6A040EDB50070B006E010E00527B
:1003100004E0E846FE0B0006FCE1DF6E040EDB5055
:10032000070B5EE1040EDB50F80BE842E842E842BE
:10033000FF0FE66E030EDBCFE6FF46EC1CF0E55246
:10034000E552E66ADAEC1BF0E552040EDB50F80BDE
:10035000E842E842E842E66E030EDBCFE6FF46ECF9
:100360001CF0E552E552E66ADAEC1BF0E552010EAC
:10037000DB0425E0040EDB50F80BE842E842E842DB
:10038000FF0FE66E030EDB04E66E46EC1CF0E55252
:10039000E552E66ADAEC1BF0E552040EDB50F80B8E
:1003A000E842E842E842E66E030EDB04E66E46EC05
:1003B0001CF0E552E552E66ADAEC1BF0E552010E5C
:1003C000DB50020801E1ABD0040EDB50F80BE84231
:1003D000E842E842FF0FE66E030EDB28E66E85D0AA
:1003E000040EDB50070B070864E1040EDB50F80B2A
:1003F000E842E842E842E66E030EDB04E66E46ECB5
:100400001CF0E552E552E66ADAEC1BF0E552040E08
:10041000DB50F80BE842E842E842E66E030EDBCF21
:10042000E6FF46EC1CF0E552E552E66ADAEC1BF01A
:10043000E552040EDB50F80BE842E842E842E66E73
:10044000030EDB28E66E46EC1CF0E552E552E66A48
:10045000DAEC1BF0E552040EDB50F80BE842E84200
:10046000E842010FE66E030EDB04E66E46EC1CF07C
:10047000E552E552E66ADAEC1BF0E552040EDB5079
:10048000F80BE842E842E842010FE66E030EDBCFCC
:10049000E6FF46EC1CF0E552E552E66ADAEC1BF0AA
:1004A000E552040EDB50F80BE842E842E842010F47
:1004B0002AD0040EDB50F80BE842E842E842E66E30
:1004C000030EDB04E66E46EC1CF0E552E552E66AEC
:1004D000DAEC1BF0E552040EDB50F80BE842E84280
:1004E000E842E66E030EDBCFE6FF46EC1CF0E55279
:1004F000E552E66ADAEC1BF0E552040EDB50F80B2D
:10050000E842E842E842E66E030EDB28E66E46EC7F
:100510001CF0E552E552E66ADAEC1BF0E552847015
:10052000040EDB0404E0040EDB503E0819E1226AED
:10053000236A800E246EBF0E256E08CF1DF009CFF2
:100540001EF00ACF1FF00BCF20F09BEC16F01DC061
:1005500008FF1EC009FF1FC00AFF20C00BFF29D3E0
:10056000010EDB0401E084D1040EDB500001D880D1
:100570006C55E66E010EE66EA4EC0AF0E552E5520B
:10058000046A056A066A400E076E04C0E6FF05C0ED
:10059000E6FF06C0E6FFE66E4D0E226EF30E236EFA
:1005A0008E0E246E3C0E256E08CF1DF009CF1EF076
:1005B0000ACF1FF00BCF20F09BEC16F01DC00CF003
:1005C0001EC00DF01FC00EF020C00FF01DC0E6FFD2
:1005D0001EC0E6FF1FC0E6FF20C0E6FFB0EC1EF025
:1005E000E552E552E552E552E552E7CF07F0E55214
:1005F000E7CF06F0E552E7CF05F0E552E7CF04F08C
:100600001CC008F01DC009F01EC00AF01FC00BF08E
:100610001CC022F01DC023F01EC024F01FC025F016
:1006200004C01DF005C01EF006C01FF007C020F07A
:100630009BEC16F01DC000F01EC001F01FC002F0C0
:1006400020C003F01DC022F01EC023F01FC024F004
:1006500020C025F000CF1DF001CF1EF002CF1FF00B
:1006600003CF20F005EC16F01DC000FF1EC001FFF7
:100670001FC002FF20C003FF046A056A066A400E1D
:10068000076E04C0E6FF05C0E6FF06C0E6FFE66EA3
:100690004D0E226EF30E236E8E0E246E3C0E256ED2
:1006A00008CF1DF009CF1EF00ACF1FF00BCF20F0AE
:1006B0009BEC16F01DC00CF01EC00DF01FC00EF01C
:1006C00020C00FF01DC0E6FF1EC0E6FF1FC0E6FF02
:1006D00020C0E6FF88EC1EF0E552E552E552E552F7
:1006E000E552E7CF07F0E552E7CF06F0E552E7CF56
:1006F00005F0E552E7CF04F01CC008F01DC009F07A
:100700001EC00AF01FC00BF01CC022F01DC023F059
:100710001EC024F01FC025F004C01DF005C01EF04F
:1007200006C01FF007C020F09BEC16F01DC000F0C3
:100730001EC001F01FC002F020C003F01DC022F057
:100740001EC023F01FC024F020C025F004CF1DF0F0
:1007500005CF1EF006CF1FF007CF20F005EC16F0F6
:100760001DC004FF1EC005FF1FC006FF20C007FFFD
:10077000226A236AFC0E246E420E256E00CF1DF005
:1007800001CF1EF002CF1FF003CF20F02FEC17F0A7
:10079000010A07E10F01006B016BFC0E026F420EB4
:1007A000036F226A236A780E246E420E256E04CFF0
:1007B0001DF005CF1EF006CF1FF007CF20F02FEC65
:1007C00017F0010A07E10F01046B056B780E066F45
:1007D000420E076F226A236A800E246E3F0E256E3A
:1007E00000CF1DF001CF1EF002CF1FF003CF20F08D
:1007F00038EC17F0010A07E10F01006B016B800E66
:10080000026F3F0E036F226A236A800E246E3F0E32
:10081000256E04CF1DF005CF1EF006CF1FF007CFC9
:1008200020F038EC17F0010A07E10F01046B056BAB
:10083000800E066F3F0E076F00CF1DF001CF1EF038
:1008400002CF1FF003CF20F008EC17F0030E1FC0FB
:10085000DBFF04CF1DF005CF1EF006CF1FF007CF42
:1008600020F008EC17F0040E1FC0DBFF010E88D14A
:10087000010EDB50020801E087D1040EDB500001BD
:10088000D8806E55E66E020EE66EA4EC0AF0E552D4
:10089000E552046A056A066A400E076E04C0E6FF68
:1008A00005C0E6FF06C0E6FFE66E4D0E226EF30EB3
:1008B000236E8E0E246E3C0E256E08CF1DF009CFE0
:1008C0001EF00ACF1FF00BCF20F09BEC16F01DC0DE
:1008D0000CF01EC00DF01FC00EF020C00FF01DC0A8
:1008E000E6FF1EC0E6FF1FC0E6FF20C0E6FFB0EC3B
:1008F0001EF0E552E552E552E552E552E7CF07F02A
:10090000E552E7CF06F0E552E7CF05F0E552E7CF35
:1009100004F01CC008F01DC009F01EC00AF01FC082
:100920000BF01CC022F01DC023F01EC024F01FC01D
:1009300025F004C01DF005C01EF006C01FF007C062
:1009400020F09BEC16F01DC000F01EC001F01FC08F
:1009500002F020C003F01DC022F01EC023F01FC013
:1009600024F020C025F000CF1DF001CF1EF002CFF3
:100970001FF003CF20F005EC16F01DC000FF1EC0D5
:1009800001FF1FC002FF20C003FF046A056A066A58
:10099000400E076E04C0E6FF05C0E6FF06C0E6FF96
:1009A000E66E4D0E226EF30E236E8E0E246E3C0EFE
:1009B000256E08CF1DF009CF1EF00ACF1FF00BCF18
:1009C00020F09BEC16F01DC00CF01EC00DF01FC0F7
:1009D0000EF020C00FF01DC0E6FF1EC0E6FF1FC0D6
:1009E000E6FF20C0E6FF88EC1EF0E552E552E55236
:1009F000E552E552E7CF07F0E552E7CF06F0E552C2
:100A0000E7CF05F0E552E7CF04F01CC008F01DC0A9
:100A100009F01EC00AF01FC00BF01CC022F01DC060
:100A200023F01EC024F01FC025F004C01DF005C037
:100A30001EF006C01FF007C020F09BEC16F01DC092
:100A400000F01EC001F01FC002F020C003F01DC066
:100A500022F01EC023F01FC024F020C025F004CFD8
:100A60001DF005CF1EF006CF1FF007CF20F005ECDC
:100A700016F01DC004FF1EC005FF1FC006FF20C0EA
:100A800007FF226A236AFC0E246E420E256E00CFF9
:100A90001DF001CF1EF002CF1FF003CF20F02FEC8E
:100AA00017F0010A07E10F01006B016BFC0E026FEA
:100AB000420E036F226A236A780E246E420E256E60
:100AC00004CF1DF005CF1EF006CF1FF007CF20F09A
:100AD0002FEC17F0010A07E10F01046B056B780E8C
:100AE000066F420E076F226A236A800E246E3F0E45
:100AF000256E00CF1DF001CF1EF002CF1FF003CFF7
:100B000020F038EC17F0010A07E10F01006B016BD0
:100B1000800E026F3F0E036F226A236A800E246EDE
:100B20003F0E256E04CF1DF005CF1EF006CF1FF03F
:100B300007CF20F038EC17F0010A07E10F01046B32
:100B4000056B800E066F3F0E076F00CF1DF001CFC3
:100B50001EF002CF1FF003CF20F008EC17F0030EB9
:100B60001FC0DBFF04CF1DF005CF1EF006CF1FF026
:100B700007CF20F008EC17F0040E1FC0DBFF020EB9
:100B8000E66EB8DBE55215D0030EDB0406E1010E7C
:100B9000E66E9CDAE552010E08D0030EDB507E08AB
:100BA00008E1E66A93DAE552020EE66EB6DAE5523D
:100BB00083D2046A056A066A400E076E04C0E6FF27
:100BC00005C0E6FF06C0E6FFE66E4D0E226EF30E90
:100BD000236E8E0E246E3C0E256E08CF1DF009CFBD
:100BE0001EF00ACF1FF00BCF20F09BEC16F01DC0BB
:100BF0000CF01EC00DF01FC00EF020C00FF01DC085
:100C0000E6FF1EC0E6FF1FC0E6FF20C0E6FFB0EC17
:100C10001EF0E552E552E552E552E552E7CF07F006
:100C2000E552E7CF06F0E552E7CF05F0E552E7CF12
:100C300004F01CC008F01DC009F01EC00AF01FC05F
:100C40000BF01CC022F01DC023F01EC024F01FC0FA
:100C500025F004C01DF005C01EF006C01FF007C03F
:100C600020F09BEC16F01DC000F01EC001F01FC06C
:100C700002F020C003F01DC022F01EC023F01FC0F0
:100C800024F020C025F000CF1DF001CF1EF002CFD0
:100C90001FF003CF20F005EC16F01DC000FF1EC0B2
:100CA00001FF1FC002FF20C003FF046A056A066A35
:100CB000400E076E04C0E6FF05C0E6FF06C0E6FF73
:100CC000E66E4D0E226EF30E236E8E0E246E3C0EDB
:100CD000256E08CF1DF009CF1EF00ACF1FF00BCFF5
:100CE00020F09BEC16F01DC00CF01EC00DF01FC0D4
:100CF0000EF020C00FF01DC0E6FF1EC0E6FF1FC0B3
:100D0000E6FF20C0E6FF88EC1EF0E552E552E55212
:100D1000E552E552E7CF07F0E552E7CF06F0E5529E
:100D2000E7CF05F0E552E7CF04F01CC008F01DC086
:100D300009F01EC00AF01FC00BF01CC022F01DC03D
:100D400023F01EC024F01FC025F004C01DF005C014
:100D50001EF006C01FF007C020F09BEC16F01DC06F
:100D600000F01EC001F01FC002F020C003F01DC043
:100D700022F01EC023F01FC024F020C025F004CFB5
:100D80001DF005CF1EF006CF1FF007CF20F005ECB9
:100D900016F01DC004FF1EC005FF1FC006FF20C0C7
:100DA00007FF226A236AFC0E246E420E256E00CFD6
:100DB0001DF001CF1EF002CF1FF003CF20F02FEC6B
:100DC00017F0010A07E10F01006B016BFC0E026FC7
:100DD000420E036F226A236A780E246E420E256E3D
:100DE00004CF1DF005CF1EF006CF1FF007CF20F077
:100DF0002FEC17F0010A07E10F01046B056B780E69
:100E0000066F420E076F226A236A800E246E3F0E21
:100E1000256E00CF1DF001CF1EF002CF1FF003CFD3
:100E200020F038EC17F0010A07E10F01006B016BAD
:100E3000800E026F3F0E036F226A236A800E246EBB
:100E40003F0E256E04CF1DF005CF1EF006CF1FF01C
:100E500007CF20F038EC17F0010A07E10F01046B0F
:100E6000056B800E066F3F0E076F00CF1DF001CFA0
:100E70001EF002CF1FF003CF20F008EC17F0030E96
:100E80001FC0DBFF04CF1DF005CF1EF006CF1FF003
:100E900007CF20F008EC17F0040E1FC0DBFFDB507B
:100EA000070B006E010E005204E0E846FE0B000640
:100EB000FCE1DF6E040EDB50070B3DE1040EDB505E
:100EC000F80BE842E842E842FF0FE66E030EDB044F
:100ED000E66E46EC1CF0E552E552800EE66EDAEC6A
:100EE0001BF0E552040EDB50F80BE842E842E84202
:100EF000FF0FE66E030EDBCFE6FF46EC1CF0E5527B
:100F0000E552800EE66EDAEC1BF0E552040EDB5083
:100F1000F80BE842E842E842FF0FE66E030EDB28DA
:100F2000E66E46EC1CF0E552E552800EE66EDAEC19
:100F30001BF0E55281D0040EDB50070B070801E0DF
:100F400077D0DF407F0BDF10DF6E040EDB50F80B35
:100F5000E842E842E842E66E030EDB04E66E46EC49
:100F60001CF0E552E552DFCFE6FFDAEC1BF0E5526C
:100F7000040EDB50F80BE842E842E842E66E030E4E
:100F8000DBCFE6FF46EC1CF0E552E552DFCFE6FF93
:100F9000DAEC1BF0E552040EDB50F80BE842E842B5
:100FA000E842E66E030EDB28E66E46EC1CF0E552E6
:100FB000E552DFCFE6FFDAEC1BF0E552040EDB5022
:100FC000F80BE842E842E842010FE66E030EDB044C
:100FD000E66E46EC1CF0E552E552010EE66EDAECE8
:100FE0001BF0E552040EDB50F80BE842E842E84201
:100FF000010FE66E030EDBCFE6FF46EC1CF0E55278
:10100000E552010EE66EDAEC1BF0E552040EDB5001
:10101000F80BE842E842E842010FE66E030EDB28D7
:10102000E66E46EC1CF0E552E552010EE66E3ED04F
:10103000DF407F0BDF10DF6EDF50E824DF10DF6E54
:10104000040EDB50F80BE842E842E842E66E030E7D
:10105000DB04E66E46EC1CF0E552E552DFCFE6FF1E
:10106000DAEC1BF0E552040EDB50F80BE842E842E4
:10107000E842E66E030EDBCFE6FF46EC1CF0E552DD
:10108000E552DFCFE6FFDAEC1BF0E552040EDB5051
:10109000F80BE842E842E842E66E030EDB28E66E13
:1010A00046EC1CF0E552E552DFCFE6FFDAEC1BF030
:1010B000E5520F010C6BD58E050EE15C02E2E16A90
:1010C000E552E16EE552E7CFD9FF1200D9CFE6FF36
:1010D000E1CFD9FFFE0EDB5003E100016A2B05D002
:1010E000FE0EDB5002E000016B2B6CDBFE0EDB50D2
:1010F00002E1010E01D0020EF36EFE0EF3CFDBFF14
:1011000097EC1CF0FE0EDBCFE6FF07D8E55240EC73
:1011100000F0E552E7CFD9FF1200D9CFE6FFE1CFCB
:10112000D9FF030EE126FE0EDB0422E1010EDF6E85
:1011300000016A51D880DF541BE3DF50E824050F1B
:10114000E76E010EE7CFDBFF020EE66ED7EC1EF076
:10115000E552E66A010EDBCFE6FF46EC1CF0E552F5
:10116000E552FE0EE66EDAEC1BF0E552DF2AE0D720
:10117000FE0EDB50020824E1010EDF6E00016B5110
:10118000D880DF541DE37F0E006EDF50E824005C42
:10119000FB0FE76E020EE7CFDBFFE66ED7EC1EF02B
:1011A000E552E66A020EDBCFE6FF46EC1CF0E552A4
:1011B000E552FE0EE66EDAEC1BF0E552DF2ADED7D2
:1011C000030EE15C02E2E16AE552E16EE552E7CF2F
:1011D000D9FF12000001705118E18450100B08E093
:1011E0008450200B05E1010E706FB180020E09D012
:1011F0008450200B0AE08450100B07E1020E706F40
:10120000B180E66ED7EC1EF0E552000171511CE191
:101210008850010B0CE08850020B09E1010E716F40
:101220007B80020EE66ED7EC1EF0E552120088506D
:10123000020B0AE08850010B07E1020E716F7B8000
:10124000E66ED7EC1EF0E55212000F01010E0C6F96
:10125000D00ECF6ECE6A9E90D59E1200B190000146
:1012600070050BE13E0E6D5D15E2010EE66ED8D9FC
:10127000E55200016C2B6D2B0DD0020E705D0AE162
:101280006C51000807E2010EE66ECAD9E552000172
:101290006C076D07C80EB36EB26A706B010EE66E16
:1012A00029D8E552A19212007B90000171050BE153
:1012B0003E0E6F5D15E2020EE66EB2D9E5520001F8
:1012C0006E2B6F2B0DD0020E715D0AE16E5100087E
:1012D00007E2020EE66EA4D9E55200016E076F0721
:1012E000C80E7D6E7C6A716B020EE66E03D8E55205
:1012F000BA921200D9CFE6FFE1CFD9FF020EE12664
:10130000FE0EDB0401E082D000016C51F80BE842D4
:10131000E842E842E76E010EE7CFDBFF6C51070BB6
:10132000006EFF0E005204E0E846FE0B0006FCE1F2
:10133000DF6E010EDBCFE6FFE66A46EC1CF0E552FD
:10134000E552DFCFE6FFDAEC1BF0E552010EDBCF12
:10135000E6FFE66E46EC1CF0E552E552DFCFE6FF15
:10136000DAEC1BF0E55200016D51F80BE842E8425F
:10137000E842E76E010EE7CFDBFF0068070E016E63
:101380006D51070B015C00C0E7FF070B04E0E7426B
:10139000E79EE806FCE1E750DF6E010EDBCFE6FFDB
:1013A000E66A46EC1CF0E552E552DFCFE6FFDAECE8
:1013B0001BF0E552010EDBCFE6FFE66E46EC1CF0BB
:1013C000E552E552DFCFE6FFDAEC1BF0E552010E05
:1013D000DBCFE6FF00016C51F80BE842E842E8423F
:1013E000E552E75C020801E0A5D0010EDB06DBCF89
:1013F000E6FFE66A46EC1CF0E552E552E668DAECF8
:101400001BF0E552010EDBCFE6FF8BD0FE0EDB506A
:10141000020801E08FD000016E51F80BE842E8426B
:10142000E842E76E010EE7CFDBFF6E51070B006E5F
:10143000FF0E005204E0E846FE0B0006FCE1DF6E02
:10144000010EDBCFE6FF7F0EE66E46EC1CF0E552A8
:10145000E552DFCFE6FFDAEC1BF0E552010EDBCF01
:10146000E6FF7E0EE66E46EC1CF0E552E552DFCF5D
:10147000E6FFDAEC1BF0E55200016F51F80BE84291
:10148000E842E842E76E010EE7CFDBFF0068070E97
:10149000016E6F51070B015C00C0E7FF070B04E012
:1014A000E742E79EE806FCE1E750DF6E010EDBCF86
:1014B000E6FF7F0EE66E46EC1CF0E552E552DFCF0C
:1014C000E6FFDAEC1BF0E552010EDBCFE6FF7E0E05
:1014D000E66E46EC1CF0E552E552DFCFE6FFDAECB3
:1014E0001BF0E552010EDBCFE6FF00016E51F80B59
:1014F000E842E842E842E552E75C02081BE1010EDF
:10150000DB06DBCFE6FF7F0EE66E46EC1CF0E55215
:10151000E552E668DAEC1BF0E552010EDBCFE6FFA0
:101520007E0EE66E46EC1CF0E552E552E668DAEC1B
:101530001BF0E552020EE15C02E2E16AE552E16E67
:10154000E552E7CFD9FF1200D9CFE6FFE1CFD9FFAF
:10155000E652080EF36EFD0EDBCFF4FFF350F45CA1
:1015600009E2FD0EDBCFE6FF070EE552D880E75417
:10157000F60D08D0FD0EDB50070814E2FD0EDB501F
:10158000F80F0A0DF350DF6EDFCF00F000C01FF040
:10159000F5EC15F01DC008FF1EC009FF1FC00AFFB3
:1015A00020C00BFFFE0EDB50020835E1226A236AE1
:1015B000246A256A08CF1DF009CF1EF00ACF1FF05C
:1015C0000BCF20F038EC17F0010A06E1006A016A3F
:1015D000340E026EC30E05D0006A016A340E026E2C
:1015E000430E036E08CF22F009CF23F00ACF24F078
:1015F0000BCF25F000C01DF001C01EF002C01FF08F
:10160000206E04EC16F01DC008FF1EC009FF1FC0AD
:101610000AFF20C00BFFE552E552E7CFD9FF1200C9
:10162000D9CFE6FFE1CFD9FFFE0EDB0401E07ED08B
:1016300000016C51F80BE842E842E842E66EE66AC7
:1016400046EC1CF0E552E552E66ADAEC1BF0E55296
:1016500000016D51F80BE842E842E842E66EE66AA6
:1016600046EC1CF0E552E552E66ADAEC1BF0E55276
:1016700000016C51F80BE842E842E842E66E010EC8
:10168000E66E46EC1CF0E552E552E66ADAEC1BF039
:10169000E55200016D51F80BE842E842E842E66E7F
:1016A000010EE66E46EC1CF0E552E552E66ADAEC15
:1016B0001BF0E55200016C51F80BE842E842E842A9
:1016C000E66E020EE66E46EC1CF0E552E552E66A66
:1016D000DAEC1BF0E55200016D51F80BE842E842EC
:1016E000E842E66E020EE66E46EC1CF0E552E5526C
:1016F000E66ADAEC1BF0E55200016C51F80BE842A7
:10170000E842E842E66E030EE66E46EC1CF0E55257
:10171000E552E66ADAEC1BF0E55200016D51F80B78
:10172000E842E842E842E66E030E3FD0FE0EDB5090
:10173000020844E100016E51F80BE842E842E84239
:10174000E66E7E0EE66E46EC1CF0E552E552E66A69
:10175000DAEC1BF0E55200016F51F80BE842E84269
:10176000E842E66E7E0EE66E46EC1CF0E552E5526F
:10177000E66ADAEC1BF0E55200016E51F80BE84224
:10178000E842E842E66E7F0EE66E46EC1CF0E5525B
:10179000E552E66ADAEC1BF0E55200016F51F80BF6
:1017A000E842E842E842E66E7F0EE66E46EC1CF048
:1017B000E552E552E66ADAEC1BF0E552E552E7CF76
:1017C000D9FF1200D9CFE6FFE1CFD9FFE652DF6A99
:1017D000080EDF5C31E2DFCFE6FFE66A46EC1CF084
:1017E000E552E552E66ADAEC1BF0E552DFCFE6FFA0
:1017F000010EE66E46EC1CF0E552E552E66ADAECC4
:101800001BF0E552DFCFE6FF7F0EE66E46EC1CF0E4
:10181000E552E552E66ADAEC1BF0E552DFCFE6FF6F
:101820007E0EE66E46EC1CF0E552E552E66ADAEC16
:101830001BF0E552DF2ACCD7E552E552E7CFD9FFBE
:101840001200050E00016A5D03E0050E6B5D03E109
:101850000F01136B19D884A616D0040EE66ED7ECD0
:101860001EF0E55284A60FD0A00EE66ED7EC1EF057
:10187000E552A00EE66ED7EC1EF0E5520F011305FF
:1018800002E1136B01D81200D9CFE6FFE1CFD9FFF7
:10189000020EE1260F01135102E0E9EF10F0010EF4
:1018A000E66E3BDCE552020EE66E37DCE5520001E7
:1018B0006B516A5D01E15DD3290EDF6E030EE66EAA
:1018C000DFCFE6FF46EC1CF0E552E552E668DAECC5
:1018D0001BF0E552030EE66EDF28E66E46EC1CF0C8
:1018E000E552E552090EE66EDAEC1BF0E552030E06
:1018F000E66E020EDF24E66E46EC1CF0E552E55281
:10190000090EE66EDAEC1BF0E552030EE66EDF24FC
:10191000E66E46EC1CF0E552E552090EE66EDAEC96
:101920001BF0E552030EE66E040EDF24E66E46EC75
:101930001CF0E552E5520F0EE66EDAEC1BF0E552B4
:10194000060EDF24DF6E030EE66EDFCFE6FF46EC09
:101950001CF0E552E552E668DAEC1BF0E552030EA6
:10196000E66EDF28E66E46EC1CF0E552E552800E8E
:10197000E66EDAEC1BF0E552030EE66E020EDF2493
:10198000E66E46EC1CF0E552E552800EE66EDAECAF
:101990001BF0E552030EE66EDF24E66E46EC1CF00B
:1019A000E552E552800EE66EDAEC1BF0E552050ECC
:1019B000DF24DF6E030EE66EDFCFE6FF46EC1CF0A1
:1019C000E552E552E668DAEC1BF0E552030EE66EEE
:1019D000DF28E66E46EC1CF0E552E552090EE66E95
:1019E000DAEC1BF0E552030EE66E020EDF24E66E23
:1019F00046EC1CF0E552E552090EE66EDAEC1BF0FF
:101A0000E552030EE66EDF24E66E46EC1CF0E5526E
:101A1000E552090EE66EDAEC1BF0E552030EE66EB7
:101A2000040EDF24E66E46EC1CF0E552E552E66853
:101A3000DAEC1BF0E552060EDF24DF6E030EE66ED5
:101A4000DFCFE6FF46EC1CF0E552E552010EE66EF4
:101A5000DAEC1BF0E552030EE66EDF28E66E46EC8C
:101A60001CF0E552E552020EE66EDAEC1BF0E55290
:101A7000030EE66E020EDF24E66E46EC1CF0E55225
:101A8000E552040EE66EDAEC1BF0E552030EE66E4C
:101A9000DF24E66E46EC1CF0E552E552F80EE66EE9
:101AA000DAEC1BF0E552030EE66E040EDF24E66E60
:101AB00046EC1CF0E552E552040EE66EDAEC1BF043
:101AC000E552030EE66E050EDF24E66E46EC1CF0D2
:101AD000E552E552020EE66EDAEC1BF0E552030E1B
:101AE000E66E060EDF24E66E46EC1CF0E552E5528B
:101AF000010EE66EDAEC1BF0E552080EDF24DF6E15
:101B0000030EE66EDFCFE6FF46EC1CF0E552E55231
:101B1000E668DAEC1BF0E552030EE66EDF28E66EAF
:101B200046EC1CF0E552E552890EE66EDAEC1BF04D
:101B3000E552030EE66E020EDF24E66E46EC1CF064
:101B4000E552E552890EE66EDAEC1BF0E552030E23
:101B5000E66EDF24E66E46EC1CF0E552E552890E97
:101B6000E66EDAEC1BF0E552050EDF24DF6E030EA5
:101B7000E66EDFCFE6FF46EC1CF0E552E552E66884
:101B8000DAEC1BF0E552030EE66EDF28E66E46EC5B
:101B90001CF0E552E552190EE66EDAEC1BF0E55248
:101BA000030EE66E020EDF24E66E46EC1CF0E552F4
:101BB000E552290EE66EDAEC1BF0E552030EE66EF6
:101BC000DF24E66E46EC1CF0E552E552490EE66E67
:101BD000DAEC1BF0E552030EE66E040EDF24E66E2F
:101BE00046EC1CF0E552E5528F0EE66EDAEC1BF087
:101BF000E552070EDF24DF6E00016B51D8806A5575
:101C000042E2030EE66EDFCFE6FF46EC1CF0E55243
:101C1000E552820EE66EDAEC1BF0E552030EE66E3C
:101C2000DF28E66E46EC1CF0E552E552810EE66ECA
:101C3000DAEC1BF0E552030EE66E020EDF24E66ED0
:101C400046EC1CF0E552E552E668DAEC1BF0E55292
:101C5000030EE66EDF24E66E46EC1CF0E552E5521C
:101C6000800EE66EDAEC1BF0E552030EE66E040E13
:101C7000DF24E66E46EC1CF0E552E552800EE66E7F
:101C8000DAEC1BF0E55200016A51D8806B5543E253
:101C9000030EE66EDFCFE6FF46EC1CF0E552E552A0
:101CA000830EE66EDAEC1BF0E552030EE66EDF28DB
:101CB000E66E46EC1CF0E552E552C10EE66EDAEC3B
:101CC0001BF0E552030EE66E020EDF24E66E46ECD4
:101CD0001CF0E552E552A10EE66EDAEC1BF0E5527F
:101CE000030EE66EDF24E66E46EC1CF0E552E5528C
:101CF000910EE66EDAEC1BF0E552030EE66E040E72
:101D0000DF24E66E46EC1CF0E552E5528F0EE66EDF
:101D1000DAEC1BF0E552320EDF6E040EE66EDFCF1A
:101D2000E6FF46EC1CF0E552E552E668DAEC1BF003
:101D3000E552040EE66EDF28E66E46EC1CF0E55236
:101D4000E552800EE66EDAEC1BF0E552040EE66E0C
:101D5000020EDF24E66E46EC1CF0E552E552600E02
:101D6000E66EDAEC1BF0E552040EE66E030EDF249D
:101D7000E66E46EC1CF0E552E552100EE66EDAEC2B
:101D80001BF0E552040EE66EDF24E66E46EC1CF016
:101D9000E552E552600EE66EDAEC1BF0E552040EF9
:101DA000E66E050EDF24E66E46EC1CF0E552E552C9
:101DB000800EE66EDAEC1BF0E552040EE66E060EBF
:101DC000DF24E66E46EC1CF0E552E552E668DAECFC
:101DD0001BF0E552080EDF24DF6E040EE66EDFCF47
:101DE000E6FF46EC1CF0E552E552810EE66EDAECB9
:101DF0001BF0E552040EE66EDF28E66E46EC1CF0A2
:101E0000E552E552E668DAEC1BF0E552040EE66EA8
:101E1000020EDF24E66E46EC1CF0E552E552810E20
:101E2000E66EDAEC1BF0E552040EDF24DF6E040EE2
:101E3000E66EDFCFE6FF46EC1CF0E552E552E668C1
:101E4000DAEC1BF0E552040EE66EDF28E66E46EC97
:101E50001CF0E552E552030EE66EDAEC1BF0E5529B
:101E6000040EE66E020EDF24E66E46EC1CF0E55230
:101E7000E5520C0EE66EDAEC1BF0E552040EE66E4F
:101E8000030EDF24E66E46EC1CF0E552E552300E00
:101E9000E66EDAEC1BF0E552040EE66EDF24E66E29
:101EA00046EC1CF0E552E552C00EE66EDAEC1BF093
:101EB000E552040EE66E050EDF24E66E46EC1CF0DD
:101EC000E552E552E668DAEC1BF0E552070EDF2436
:101ED000DF6E040EE66EDFCFE6FF46EC1CF0E55247
:101EE000E5528F0EE66EDAEC1BF0E552040EE66E5C
:101EF000DF28E66E46EC1CF0E552E552890EE66EF0
:101F0000DAEC1BF0E552040EE66E020EDF24E66EFC
:101F100046EC1CF0E552E552890EE66EDAEC1BF059
:101F2000E552040EE66E030EDF24E66E46EC1CF06E
:101F3000E552E552890EE66EDAEC1BF0E552040E2E
:101F4000E66EDF24E66E46EC1CF0E552E552F90E33
:101F5000E66EDAEC1BF0E552060EDF24DF6E040EAF
:101F6000E66EDFCFE6FF46EC1CF0E552E552BF0E11
:101F7000A2D0380EDF6E040EE66EDFCFE6FF46EC31
:101F80001CF0E552E552010EE66EDAEC1BF0E5526C
:101F9000040EE66EDF28E66E46EC1CF0E552E552D4
:101FA000010EE66EDAEC1BF0E552040EE66E020E50
:101FB000DF24E66E46EC1CF0E552E552E668DAEC0A
:101FC0001BF0E552040EE66E030EDF24E66E46ECCF
:101FD0001CF0E552E552010EE66EDAEC1BF0E5521C
:101FE000040EE66EDF24E66E46EC1CF0E552E55288
:101FF000010EE66EDAEC1BF0E552060EDF24DF6E12
:10200000040EE66EDFCFE6FF46EC1CF0E552E5522B
:10201000810EE66EDAEC1BF0E552040EE66EDF2868
:10202000E66E46EC1CF0E552E552E668DAEC1BF091
:10203000E552040EE66E020EDF24E66E46EC1CF05E
:10204000E552E552810EE66EDAEC1BF0E552040E25
:10205000DF24DF6E040EE66EDFCFE6FF46EC1CF0F9
:10206000E552E552E668DAEC1BF0E552040EE66E46
:10207000DF28E66E46EC1CF0E552E552890EE66E6E
:10208000DAEC1BF0E552040EE66E020EDF24E66E7B
:1020900046EC1CF0E552E552890EE66EDAEC1BF0D8
:1020A000E552040EE66E030EDF24E66E46EC1CF0ED
:1020B000E552E552890EE66EDAEC1BF0E5520001BE
:1020C0006A6B6B6BA00EE66ED7EC1EF0E552A00EAD
:1020D000E66ED7EC1EF0E552A00EE66ED7EC1EF0D1
:1020E000E552A00EE66ED7EC1EF0E552A00EE66EAD
:1020F000D7EC1EF0E552A00EE66ED7EC1EF0E552CE
:10210000DE52030EDD6E010EDB50040817E3190EDC
:10211000DF6EDF5066080FE3010EDBCFE6FFDFCF97
:10212000E6FF46EC1CF0E552E552E66ADAEC1BF0FD
:10213000E552DF2AEED7010EDB2AE5D7010EDB6A76
:10214000F36EDBCFF4FFE850F45C17E2030EDF6EB2
:10215000DF507C080FE3010EDBCFE6FFDFCFE6FFA9
:1021600046EC1CF0E552E552E66ADAEC1BF0E5526B
:10217000DF2AEED7010EDB2AE3D735D80F01136B28
:1021800084A6FED7010EDB6ADB50080816E3DF6A7F
:10219000DF507F080FE3010EDBCFE6FFDFCFE6FF66
:1021A00046EC1CF0E552E552E66ADAEC1BF0E5522B
:1021B000DF2AEED7010EDB2AE7D740EC00F0010E54
:1021C000E66E7AEC09F0E552020EE66E7AEC09F062
:1021D000E552020EE15C02E2E16AE552E16EE5528F
:1021E000E7CFD9FF1200D9CFE6FFE1CFD9FF050E27
:1021F000E126030EE66E1C0EE66E46EC1CF0E55280
:10220000E552E668DAEC1BF0E552040EE66E1C0EB1
:10221000E66E46EC1CF0E552E552E668DAEC1BF09F
:10222000E552030EE66E1D0EE66E46EC1CF0E5521E
:10223000E552E668DAEC1BF0E552040EE66E1D0E80
:10224000E66E46EC1CF0E552E552E668DAEC1BF06F
:10225000E552030EE66E1E0EE66E46EC1CF0E552ED
:10226000E552830EE66EDAEC1BF0E552040EE66EE4
:102270001E0EE66E46EC1CF0E552E552C10EE66E0F
:10228000DAEC1BF0E552030EE66E1F0EE66E46EC2E
:102290001CF0E552E552830EE66EDAEC1BF0E552D7
:1022A000040EE66E1F0EE66E46EC1CF0E552E5529B
:1022B000C10EE66EDAEC1BF0E552030EE66E200E60
:1022C000E66E46EC1CF0E552E552830EE66EDAEC63
:1022D0001BF0E552040EE66E200EE66E46EC1CF096
:1022E000E552E552C10EE66EDAEC1BF0E552030E44
:1022F000E66E210EE66E46EC1CF0E552E552860EC7
:10230000E66EDAEC1BF0E552040EE66E210EE66E88
:1023100046EC1CF0E552E552610EE66EDAEC1BF07D
:10232000E552030EE66E220EE66E46EC1CF0E55218
:10233000E552860EE66EDAEC1BF0E552040EE66E10
:10234000220EE66E46EC1CF0E552E552610EE66E9A
:10235000DAEC1BF0E552030EE66E230EE66E46EC59
:102360001CF0E552E552CC0EE66EDAEC1BF0E552BD
:10237000040EE66E230EE66E46EC1CF0E552E552C6
:10238000330EE66EDAEC1BF0E552030EE66E240E19
:10239000E66E46EC1CF0E552E5527C0EE66EDAEC99
:1023A0001BF0E552040EE66E240EE66E46EC1CF0C1
:1023B000E552E5523E0EE66EDAEC1BF0E552030EF6
:1023C000E66E250EE66E46EC1CF0E552E552300E48
:1023D000E66EDAEC1BF0E552040EE66E250EE66EB4
:1023E00046EC1CF0E552E5520C0EE66EDAEC1BF002
:1023F000E552030EE66E290EE66E46EC1CF0E55241
:10240000E552E668DAEC1BF0E552040EE66E290EA2
:10241000E66E46EC1CF0E552E552E668DAEC1BF09D
:10242000E552030EE66E2A0EE66E46EC1CF0E5520F
:10243000E552E668DAEC1BF0E552040EE66E2A0E71
:10244000E66E46EC1CF0E552E552E668DAEC1BF06D
:10245000E5522B0EDF6E330EDF5C1CE2030EE66EE0
:10246000DFCFE6FF46EC1CF0E552E552830EE66E48
:10247000DAEC1BF0E552040EE66EDFCFE6FF46EC29
:102480001CF0E552E552C10EE66EDAEC1BF0E552A7
:10249000DF2AE1D7360EDF6E030EE66EDFCFE6FFF2
:1024A00046EC1CF0E552E552FC0EE66EDAEC1BF051
:1024B000E552040EE66EDFCFE6FF46EC1CF0E55277
:1024C000E5523F0EE66EDAEC1BF0E552030EE66EC7
:1024D000DF28E66E46EC1CF0E552E552FE0EE66E95
:1024E000DAEC1BF0E552040EE66EDF28E66E46ECF1
:1024F0001CF0E552E5527F0EE66EDAEC1BF0E55279
:10250000030EE66E020EDF24E66E46EC1CF0E5528A
:10251000E552070EE66EDAEC1BF0E552040EE66EAD
:10252000020EDF24E66E46EC1CF0E552E552E00EAA
:10253000E66EDAEC1BF0E552030EE66EDF24E66E83
:1025400046EC1CF0E552E552030EE66EDAEC1BF0A9
:10255000E552040EE66E030EDF24E66E46EC1CF038
:10256000E552E552C00EE66EDAEC1BF0E552030EC2
:10257000E66E040EDF24E66E46EC1CF0E552E552F2
:10258000030EE66EDAEC1BF0E552040EE66EDF2475
:10259000E66E46EC1CF0E552E552C00EE66EDAEC53
:1025A0001BF0E552030EE66E050EDF24E66E46ECE8
:1025B0001CF0E552E552830EE66EDAEC1BF0E552B4
:1025C000040EE66E050EDF24E66E46EC1CF0E552C6
:1025D000E552C10EE66EDAEC1BF0E552030EE66E34
:1025E000060EDF24E66E46EC1CF0E552E552830E43
:1025F000E66EDAEC1BF0E552040EE66E060EDF2402
:10260000E66E46EC1CF0E552E552C10EE66EDAECE1
:102610001BF0E552030EE66E070EDF24E66E46EC75
:102620001CF0E552E552830EE66EDAEC1BF0E55243
:10263000040EE66E070EDF24E66E46EC1CF0E55253
:10264000E5527F0EE66EDAEC1BF0E552030EE66E05
:10265000080EDF24E66E46EC1CF0E552E552870ECC
:10266000E66EDAEC1BF0E552040EE66E080EDF248F
:10267000E66E46EC1CF0E552E5523F0EE66EDAECF3
:102680001BF0E552030EE66E090EDF24E66E46EC03
:102690001CF0E552E552870EE66EDAEC1BF0E552CF
:1026A000040EE66E090EDF24E66E46EC1CF0E552E1
:1026B000E552010EE66EDAEC1BF0E552110EDF2456
:1026C000DF6E030EE66EDFCFE6FF46EC1CF0E55250
:1026D000E552E668DAEC1BF0E552040EE66EDFCF59
:1026E000E6FF46EC1CF0E552E552E668DAEC1BF03A
:1026F000E552030EE66EDF04E66E46EC1CF0E55292
:10270000E552E668DAEC1BF0E552040EE66EDF04F3
:10271000E66E46EC1CF0E552E552E668DAEC1BF09A
:10272000E552030EE66E020EDF5CE66E46EC1CF030
:10273000E552E552030EE66EDAEC1BF0E552030EAD
:10274000E66EDF5CE66E46EC1CF0E552E552030EE9
:10275000E66EDAEC1BF0E552030EE66EDF28E66E5D
:1027600046EC1CF0E552E552030EE66EDAEC1BF087
:10277000E552030EE66E020EDF24E66E46EC1CF018
:10278000E552E552030EE66EDAEC1BF0E552040E5C
:10279000E66E020EDF5CE66E46EC1CF0E552E5529A
:1027A000C00EE66EDAEC1BF0E552040EE66E030E88
:1027B000DF5CE66E46EC1CF0E552E552C00EE66EBC
:1027C000DAEC1BF0E552040EE66EDF28E66E46EC0E
:1027D0001CF0E552E552C00EE66EDAEC1BF0E55255
:1027E000040EE66E020EDF24E66E46EC1CF0E552A7
:1027F000E552C00EE66EDAEC1BF0E552080EDF245F
:10280000DF6E030EE66EDFCFE6FF46EC1CF0E5520E
:10281000E552E668DAEC1BF0E552040EE66EDFCF17
:10282000E6FF46EC1CF0E552E552E668DAEC1BF0F8
:10283000E552030EE66EDF04E66E46EC1CF0E55250
:10284000E552E668DAEC1BF0E552040EE66EDF04B2
:10285000E66E46EC1CF0E552E552E668DAEC1BF059
:10286000E552DE52010EDD6EF36E030EF3CFDBFF99
:10287000010EF36E040EF3CFDBFFDF28E76E020ECE
:10288000E7CFDBFFDBCF00F0DF28080FD880005454
:102890003DE3030EE66E010EDB50DF24E66E46ECF0
:1028A0001CF0E552E552030EDBCFE6FFDB50E824D7
:1028B000E552E724E66EDAEC1BF0E552030EE66E15
:1028C000010EDBCFE6FFDF28E552E724E66E46EC9B
:1028D0001CF0E552E552030EDBCFE6FFDB50E824A7
:1028E000E552E724E66EDAEC1BF0E552040EDB2A33
:1028F000DB50010B02E1010EDB2A030EDB50020D5F
:10290000030EF3CFDBFF020EDB2ABCD7010EF36E02
:10291000030EF3CFDBFF010EF36E040EF3CFDBFFEC
:10292000010EDB06020EDFCFDBFFDBCF00F0DF287E
:10293000080FD88000543DE3040EE66E010EDB5014
:10294000DF24E66E46EC1CF0E552E552030EDBCFC9
:10295000E6FFDB50E824E552E724E66EDAEC1BF0F4
:10296000E552040EE66E010EDBCFE6FFDF28E552EE
:10297000E724E66E46EC1CF0E552E552030EDBCF91
:10298000E6FFDB50E824E552E724E66EDAEC1BF0C4
:10299000E552040EDB2ADB50010B02E1010EDB2ABB
:1029A000030EDB50020D030EF3CFDBFF020EDB2A1A
:1029B000BCD7010EDB06030EE66E010EDB50DF24F2
:1029C000E66E46EC1CF0E552E552E668DAEC1BF0E8
:1029D000E552040EE66E010EDB50DF24E66E46EC97
:1029E0001CF0E552E552E668DAEC1BF0E552030E06
:1029F000E66E010EDB50DF24010FE66E46EC1CF0A4
:102A0000E552E552E668DAEC1BF0E552040EE66E9C
:102A1000010EDB50DF24010FE66E46EC1CF0E552A0
:102A2000E552E668DAEC1BF0E5520F0EDF24DF6EAC
:102A3000030EE66EDFCFE6FF46EC1CF0E552E552F2
:102A4000040EE66EDAEC1BF0E552030EE66EDF28AC
:102A5000E66E46EC1CF0E552E552020EE66EDAEC4C
:102A60001BF0E552020EF36EDB6EDB50060812E33C
:102A7000030EE66E020EDB50DF24E66E46EC1CF021
:102A8000E552E552030EE66EDAEC1BF0E552020E5B
:102A9000DB2AEBD7030EE66E020EDB50DF24E66E78
:102AA00046EC1CF0E552E552060EE66EDAEC1BF041
:102AB000E552030EE66E020EDB50DF24010FE66ED8
:102AC00046EC1CF0E552E5520C0EE66EDAEC1BF01B
:102AD000E552030EE66E020EDB50DF24020FE66EB7
:102AE00046EC1CF0E552E552F80EE66EDAEC1BF00F
:102AF000E552040EE66E020EDB50DF24020FE66E96
:102B000046EC1CF0E552E552010EE66EDAEC1BF0E5
:102B1000E552040EE66E020EDB50DF24E66E46EC54
:102B20001CF0E552E552010EE66EDAEC1BF0E552C0
:102B3000040EE66E020EDB50DF24010FE66E46EC5B
:102B40001CF0E552E552030EE66EDAEC1BF0E5529E
:102B5000040EE66E020EDB50DF24E66E46EC1CF03F
:102B6000E552E552060EE66EDAEC1BF0E552040E75
:102B7000E66E020EDB50DF24FF0FE66E46EC1CF023
:102B8000E552E5520C0EE66EDAEC1BF0E552040E4F
:102B9000E66E020EDB50DF24FE0FE66E46EC1CF004
:102BA000E552E552BC0EE66EDAEC1BF0E552040E7F
:102BB000E66E020EDB50DF24FD0FE66E46EC1CF0E5
:102BC000E552E552BC0EE66EDAEC1BF0E552050E5E
:102BD000E15C02E2E16AE552E16EE552E7CFD9FF3E
:062BE0001200F294120045
:0A2BE600279E05D0279E1FAE02D0E7
:102BF0001F6C278E1FC019F0186A2B6A2A6A860E6E
:102C00001A6E1B6AB2EF17F0257E276AEEEC17F0FA
:102C100006EC18F027B696EF17F027A20AD027AADD
:102C200003D027BE96EF17F027A4A2EF17F09FEF6F
:102C300017F027AA05D027ACA2EF17F09FEF17F0E7
:102C400027A00AD027A808D027BE04D027A402D0E6
:102C5000ABEF17F0AFEF17F02A6A1B6A2550205C24
:102C6000296E10E31DC02BF01EC018F01FC019F014
:102C700020C028F022C01DF023C01EF024C01FF089
:102C8000273A09D022C02BF023C018F024C019F035
:102C900025C028F0296C279E27BC278E28C01AF053
:102CA00027B0DEEF17F01A0E2960DEEF17F01A6A70
:102CB000206A27A408D01D6C1E1E1F1E201EE86A55
:102CC0001E221F22202227AC08D02B6C181E191E92
:102CD0001A1EE86A182219221A221C6A295207E0D1
:102CE00020341F321E321D321C32292EF9D71D50BE
:102CF0002B261E5018221F50192220501A221CC0A9
:102D00002AF0279E1AAE0BD02A6C2B1E181E191EF5
:102D10001A1EE86A2B22182219221A22278E1AA0BC
:102D200006D0D880193218322B322A32282A28C0ED
:102D30001AF0B2EF17F0276AEEEC17F006EC18F075
:102D400027B696EF17F027A205D027B896EF17F011
:102D50009DEF17F027AA05D027B096EF17F09DEF4B
:102D600017F027B002D027A802D0A9EF17F01B6AEE
:102D7000255020241A6EE86A1B227E0E1A5EE86A2D
:102D80001B5A2A6A2B6A186A196A24501F02F4CF48
:102D900019F0F3CF18F023501F02F3502B26F450F4
:102DA0001822000E192224501E02F3502B26F45034
:102DB0001822000E192222501F02F3502A26F45026
:102DC0002B22000E1822192223501E02F3502A260D
:102DD000F4502B22000E1822192224501D02F35009
:102DE0002A26F4502B22000E1822192222501E02ED
:102DF000F4502A26000E2B221822192223501D02DD
:102E0000F4502A26000E2B2218221922B2EF17F0B6
:102E1000276AEEEC17F027B612EF17F027A20AD0B8
:102E200027B403D07F0E1F6E19D0800E1F6E16D0F0
:102E30001F6A14D027B0FCD7870E2060F1D77E0E12
:102E40002064F6D7860E205C04E0D8901F32202A3A
:102E5000F9D727A403D01F6C1FAEEAD7120041ECAC
:102E600017F027B6000C27B0000C27B4000C010C9B
:102E700041EC17F027B6000C27B0000C27A4000C7B
:102E8000010C276AEEEC17F006EC18F027B61200DA
:102E900027AE08D027A004D027A802D02780120090
:102EA000279012002550205C0BE124501F5C08E1A4
:102EB00023501E5C05E122501D5C02E127801200B8
:102EC000D8A002D0278E10D0205025C020F0256E2B
:102ED0001F5024C01FF0246E1E5023C01EF0236E0E
:102EE0001D5022C01DF0226E2550205C10E0FF0F07
:102EF00009E0279027B403D027AE2784120027AE1D
:102F000027941200252AD8902432233222322250CC
:102F10001D5E23501E5A24501F5A1FBEEAD7D89058
:102F20001D361E361F36202EF8D7C8D77F0E206ECE
:102F3000FF0E1F6E1E6E1D6E12007F0E27BEFF0E4F
:102F4000206E02D07F0E206E800E1F6E1E6A1D6ADC
:102F5000F3D727AE04D0800E206E1F6AF7D7206A01
:102F60001F6AF4D7195018102B102A10F8E01BBE56
:102F7000F0D719BE0CD01A501B10EBE0D8902A36AF
:102F80002B36183619361A06D8A01B06F2D71B5056
:102F9000D4E11A28D2E02AAE11D07F0E2A1402E121
:102FA0002BA00CD02B2AE86A1822192207E3D8801C
:102FB000193218322B321A2A1A28BFE01A50C9E0E7
:102FC0002BC01DF018C01EF019341F6E1A30206E71
:102FD0001F32209E27BE208E9CEF17F01F36203612
:102FE00002E32784277E06E12780206A1F6A1E6A83
:102FF0001D6A1200202803E0D8801F321200D890EA
:103000001F3202E12782120027861200243625365D
:1030100002E3278C277E06E12788256A246A236A33
:10302000226A1200252803E0D88024321200D890AA
:103030002432EAE1278A1200279E08D0279E1FAE7D
:1030400005D01E6C1F1EE86A1F22278E1FC019F0B4
:103050001EC018F02B6A2A6A8E0E1A6E1B6AB2EF17
:1030600017F0279E0CD0279E1FAE09D01C6C1D1E8A
:103070001E1E1F1EE86A1D221E221F22278E1FC031
:1030800019F01EC018F01DC02BF01CC02AF09E0EB7
:103090001A6E1B6AB2EF17F0276AEEEC17F006EC17
:1030A00018F027B696EF17F027A205D027BA96EFAB
:1030B00017F09DEF17F027BAA9EF17F027A005D05A
:1030C00027B896EF17F0A9EF17F027B89DEF17F084
:1030D0001B6A7F0E20241A6EE86A1B2225501A5E96
:1030E000E86A1B5A1A0E286E206A2A6A2B6A186A26
:1030F000196A22501D5E23501E5A24501F5A000E7A
:10310000205A09E722501D2623501E2224501F2238
:10311000000E202201D02A8AD8901D361E361F3676
:103120002036D8902A362B3618361936282EE1D775
:103130001F501E101D10D8A42A8AB2EF17F0276A5C
:10314000EEEC17F027B6A9EF18F027A20ED027B49F
:1031500005D07F0E1F6EFF0E1E6E1FD0800E1F6EDD
:103160001E6A1BD01F6A1E6A18D027B0FBD78F0EAD
:103170002060EDD77E0E2064F5D78E0E205C05E032
:10318000D8901F321E32202AF8D727A406D01E6CF2
:103190001F1EE86A1F221FAEE5D71200276AEEEC59
:1031A00017F027B6D8EF18F027A20FD027B407D012
:1031B0007F0E1F6EFF0E1E6E1D6E1C6E25D0800EC4
:1031C0001F6E01D01F6A000EF6D727B0FBD71C6A0E
:1031D0009F0E2060EBD77E0E2064F4D79E0E205CFD
:1031E00007E0D8901F321E321D321C32202AF6D73B
:1031F00027A40AD01C6C1D1E1E1E1F1EE86A1D225D
:0A3200001E221F221FAEDED71200AF
:06320A00D9CFE6FFDACF88
:10321000E6FFE1CFD9FFE2CFDAFF220EE12402E39D
:10322000E168E652E16ED950130FE66E000EDA2027
:10323000E66EA8DA78EC1DF0006E060EE15C02E2A4
:10324000E16AE552E16E0050E76E0E0EE7CFDBFF5C
:10325000DB50840B0CE0210E0F01146F156B0F0E69
:10326000DB68100EDB68110EDB687F0E6ED08ADA29
:1032700036DA020E1CC0DBFF030E1DC0DBFF040E9E
:103280001EC0DBFF050E1FC0DBFF87DA226A100EAF
:10329000236E490E246E460E14DA38EC17F0010A3C
:1032A00032E07BDA67DA0DDA4CEC18F0BFD9060EA3
:1032B000DBCF1DF0070EDBCF1EF0080EDBCF1FF0BB
:1032C000090EDBCF20F0CEEC18F033EC18F0AED9BD
:1032D00064DA060EDBCF08F0070EDBCF09F0080E2C
:1032E000DBCF0AF0090EDBCF0BF044DA256E08C005
:1032F0001DF009C01EF00AC01FF00BC020F048DA14
:1033000004EC16F0C4D9F90EDB5012E00E0EDB040B
:103310000BE1FA0EDBCF00F0FB0EDBCF01F0FC0E71
:10332000DBCF02F0FD0E52D167D9246AF8D947D01D
:103330000E0EDB0419E10F0EDB6A100EDB6A800E45
:10334000F36E110EF3CFDBFF3F0EF36E120EF3CFD1
:10335000DBFF0F0EDBCF00F0100EDBCF01F0110E04
:10336000DBCF02F0120E32D1190EDB6A45D9800E86
:10337000246ED5D9006A016A026A3F0E036ED950E5
:10338000060FE96E000EDA20EA6EEECF1DF0EECFEA
:103390001EF0EECF1FF0EFCF20F000C022F001C0F2
:1033A00023F002C024F003C025F004EC16F020C086
:1033B000EDFF1FC0EDFF1EC0EDFF1DC0EFFFDF5092
:1033C000010B0AE0190EDB5002E0000E01D0010EE5
:1033D000E76E190EE7CFDBFF8CD9060EDBCF0CF0C2
:1033E000070EDBCF0DF0080EDBCF0EF0090EDBCFA2
:1033F0000FF0226A236A490E246E400E256E0CC01F
:103400001DF00DC01EF00EC01FF00FC020F09BEC91
:1034100016F05CD9A6D995D904EC16F077D9060E2A
:10342000DBCF14F0070EDBCF15F0080EDBCF16F064
:10343000090EDBCF17F0220E226EAA0E236E7D0E30
:10344000246E3A0E256E14C01DF015C01EF016C075
:103450001FF017C020F09BEC16F01DC010F01EC02E
:1034600011F01FC012F020C013F0EDD804EC16F0DC
:103470000A0E1DC0DBFF0B0E1EC0DBFF0C0E1FC0B3
:10348000DBFF0D0E20C0DBFFD9500A0FE96E000EE6
:10349000EAD825D91CC000F01DC001F01EC002F002
:1034A0001FC003F0226A236A800E246E390E256E37
:1034B0001CC01DF04FD938EC17F0010A13E1D950A8
:1034C0000A0FE96E000EDA20EA6E020EEECFDBFF85
:1034D000030EEECFDBFF040EEECFDBFF050EEECFCB
:1034E000DBFF68D0E1D80A0EDBCF22F00B0EDBCF7A
:1034F00023F00C0EDBCF24F00D0EDBCF25F09BEC80
:1035000016F01A0E1DC0DBFF1B0E1EC0DBFF1C0ECB
:103510001FC0DBFF1D0E20C0DBFF5B0E1D6E9C0E6F
:103520001E6E2E0E1F6E360E206E72D8CFD8220E53
:10353000226EB20E236E4F0E246EB90E32D99ED873
:103540003E0E226E870E236E080E246E3C0E29D985
:10355000DDD8A40E226EAA0E236E2A0E246EBE0E95
:1035600020D91E0E1DC0DBFF1F0E1EC0DBFF200E6C
:103570001FC0DBFF210E20C0DBFF0A0EDBCF00F0F7
:103580000B0EDBCF01F00C0EDBCF02F00D0EDBCF0C
:1035900003F08AD81E0EDBCF22F01F0EDBCF23F004
:1035A000200EDBCF24F0210EDBCF25F0F1D805EC87
:1035B00016F06DD8190EDB5008E09BD8226A236AFA
:1035C000800E246EBF0EF0D803D042D8DBCF03F0BC
:1035D00000C01CF001C01DF002C01EF003C01FF0AF
:1035E000220EE15C02E2E16AE552E16EE552E5CFCE
:1035F000DAFFE7CFD9FF12007CD8830E226EF90ED6
:10360000236EA20E246E3E0ECFD8226A236A1200C9
:103610001A0EDBCF22F01B0EDBCF23F01C0EDBCF0C
:1036200024F01D0EDBCF25F09BEF16F0060E1DC01B
:10363000DBFF070E1EC0DBFF080E1FC0DBFF090EFD
:1036400020C0DBFF12008DD800C01DF0AAEF1BF0D8
:10365000020EDBCF00F0030EDBCF01F0040EDBCF58
:1036600002F0050E1200DA20EA6EEECFE6FFEECF92
:10367000E6FFEECFE6FFEFCFE6FF12001DC004F03D
:103680001EC005F01FC006F020C007F01200020E99
:103690001DC0DBFF030E1EC0DBFF040E1FC0DBFFDF
:1036A000050E20C0DBFF12000A0EDBCF1DF00B0E53
:1036B000DBCF1EF00C0EDBCF1FF00D0EDBCF20F0AA
:1036C0001200256E00C01DF0AAEF1BF01DC008F00F
:1036D0001EC009F01FC00AF020C00BF0120055EC0C
:1036E0001EF0E552E552E552E5521200256E05EF57
:1036F00016F0020EDBCF04F0030EDBCF05F0040E54
:10370000DBCF06F0050EDBCF07F012001DC000F086
:103710001EC001F01FC002F020C003F012003F0ED7
:10372000E5DF9FEC18F01EC0DEFF1FC0DDFF000EBE
:10373000DFCF1EF0010EDBCF1FF01EEC18F016EFEE
:103740001BF004C01DF005C01EF006C01FF007C02E
:1037500020F0120001C01EF002C01FF003C020F0D4
:1037600012001DC022F01EC023F01FC024F020C094
:1037700025F01200DB0E226E0F0E236EC90E246E92
:10378000400E1200D950FA0FE96EFF0E33EF1BF016
:103790009BEC16F073DF23EF1BF05ADFDBCF03F057
:1037A0001200A4DF08EF1BF0256ECBDF9BEC16F0B8
:0437B00086EF1BF095
:0C37B400D9CFE6FFE1CFD9FF8A848A96C6
:1037C000FE0EDB508C6E000000000000000004D8EC
:1037D000E552E7CFD9FF12008A8872C0E6FF1AECE3
:1037E0001FF0E5528A9872C0E6FF1AEC1FF0E5520E
:1037F00012008A808A828A8A8A908A928A948A9619
:103800003F0E8C6EECEF1BF0D9CFE6FFE1CFD9FF76
:103810008A948A96400EF36EFE0EDBCFF4FFF350CF
:10382000F45C03E28A908A8209D08A808A92FE0E32
:10383000DB50C00FE76EFE0EE7CFDBFFFE0EDB5066
:1038400040097F0BE76EFE0EE7CFDBFFDB508C6E8F
:10385000C3DFE552E7CFD9FF1200D9CFE6FFE1CFB2
:10386000D9FFFE0EDB5007080DE38A948A96FE0E00
:10387000DB50B809BF0BE76EFE0EE7CFDBFFDB5076
:103880008C6EAADFE552E7CFD9FF1200D9CFE6FF51
:10389000E1CFD9FFFE0EDBCFE6FFB6DFE552FD0E2E
:1038A000DBCFE6FFDADFE552E552E7CFD9FF1200C2
:1038B000D9CFE6FFE1CFD9FFE652FD0EDB5013E191
:1038C0008A908A82DF6A410EDF5C2CE2FE0EDBCF3B
:1038D000E6FFDFCFE6FFDADFE552E552E66A6ADFB0
:1038E000E552DF2AF0D7FD0EDB041CE18A808A92C4
:1038F000410EDF6EDF50006E016AD890015004E681
:10390000800E005C000E01580DE2FE0EDBCFE6FFDC
:10391000DFCFE6FFBBDFE552E552E66A4BDFE5525B
:10392000DF2AE8D7E552E552E7CFD9FF1200D9CF19
:10393000E6FFE1CFD9FFE652DF6A080EDF5C0FE257
:10394000E66ADFCFE6FFB4DFE552E552010EE66E30
:10395000DFCFE6FFADDFE552E552DF2AEED7E552D5
:08396000E552E7CFD9FF120088
:0839680009D821EC0CF021EC60
:103970000CF0EAEC08F0EAEC00F0F7D7D9CFE6FF5C
:10398000E1CFD9FF030EE126040E946E8B6A966A8E
:103990008D6A96869688968A9A809A82978893905E
:1039A0009392939493969398939A956AF9EC1BF05B
:1039B00097EC1CF040EC00F0D08E9E909D809F9084
:1039C000CD88CD8ACF6ACE6AF26AF28CF28ECD8033
:1039D000B188B18AB36AB26AA082A192A2927B88AE
:1039E0007B8A7D6A7C6AB982BA92D292050ED56EC4
:1039F000F294F194B9960F013D811CEC00F040EC7B
:103A000000F0030EE15C02E2E16AE552E16EE5528C
:103A1000E7CFD9FF1200DACFE4FFE652E552E5CF57
:103A2000DAFF1100D8CFE4FFE0CFE4FFE46EDACF95
:103A3000E4FFE2CFDAFFE9CFE4FFEACFE4FFF6CF1D
:103A4000E4FFF7CFE4FFF5CFE4FFF3CFE4FFF4CFDB
:103A5000E4FFFACFE4FF00EE18F0140EE80403E3ED
:103A6000EECFE4FFFBD700EE00F0180EE80403E30E
:103A7000EECFE4FFFBD7E6529EA003D025EC09F081
:103A8000FBD7A1A203D02EEC09F0F6D7BAA203D03F
:103A900054EC09F0F1D7F2A402D0F1EC15F0E552A4
:103AA00000EE17F0180EE80403E3E5CFEDFFFBD7B7
:103AB00000EE2BF0140EE80403E3E5CFEDFFFBD797
:103AC000E5CFFAFFE5CFF4FFE5CFF3FFE5CFF5FF54
:103AD000E5CFF7FFE5CFF6FFE5CFEAFFE5CFE9FF5A
:103AE000E5CFDAFFE550E5CFE0FFE5CFD8FF1000E6
:103AF000D9CFE6FFDACFE6FFE1CFD9FFE2CFDAFF99
:103B0000E652006801687F0E026E036AD950FA0F10
:103B1000E96EFF0EDA20EA6EEE500016EE50011646
:103B2000EE500216EE5003166AD800C0EEFF01C038
:103B3000EEFF02C0EEFF03C0EEFFFD0EDB50800B78
:103B400002E0010E01D0000EE66E59D8060EE926FD
:103B5000000EEA22E552E750EF6EFC0EDBCF00F0DC
:103B6000FD0EDBCF01F0D89000360136FC0E00C010
:103B7000DBFFFD0E01C0DBFFDB50E66E40D8040E1C
:103B8000E926000EEA22E552E750EE6EED6AFD0EE0
:103B9000DB50006E016AFF0E001818E1015016E1BB
:103BA0002ED8EECF00F0EECF01F0EECF02F0EFCF47
:103BB00003F0005001100210031006E0210E0F0167
:103BC000146F156B800E0BD0040E09D0FD0EDB5068
:103BD00008E115D8EE6AEE6AEE6AEE6A010EDF6E53
:103BE00006D0020EDF6E0BD8EE52EE52EE8EDF5094
:103BF000E552E552E5CFDAFFE7CFD9FF1200F80E24
:0C3C0000DBCFE9FFF90EDBCFEAFF12007A
:043C0C001E0EF66E24
:103C1000000EF76E000EF86E00010900F550656F9A
:103C20000900F550666F03E1656701D03DD00900DA
:103C3000F550606F0900F550616F0900F550626F33
:103C400009000900F550E96E0900F550EA6E090017
:103C500009000900F550636F0900F550646F090011
:103C60000900F6CF67F0F7CF68F0F8CF69F060C0D1
:103C7000F6FF61C0F7FF62C0F8FF0001635302E185
:103C8000645307E00900F550EE6E6307F8E264073D
:103C9000F9D767C0F6FF68C0F7FF69C0F8FF0001F9
:0A3CA0006507000E665BBFD7120037
:063CAA00D9CFE6FFDACFDE
:103CB000E6FFE1CFD9FFE2CFDAFFE652E652D95074
:103CC000FD0F006EFF0EDA2000C0DEFFDD6EDECFDE
:103CD000E9FFDDCFEAFFEF9EFA0EDBCF00F0FB0E2F
:103CE000DBCF01F0FC0EDBCF02F0FD0EDBCF03F0EB
:103CF00000C01CF001C01DF002C01EF003C01FF088
:103D0000E552E552E552E5CFDAFFE7CFD9FF1200E1
:103D1000D9CFE6FFDACFE6FFE1CFD9FFE2CFDAFF76
:103D2000010EE66ED950FA0FE96EFF0EDA20EA6E48
:103D3000EECFE6FFEECFE6FFEECFE6FFEFCFE6FFFA
:103D400005EC19F0006E050EE15C02E2E16AE55255
:103D5000E16E0050E552E5CFDAFFE7CFD9FF120060
:103D6000D9CFE6FFDACFE6FFE1CFD9FFE2CFDAFF26
:103D7000E66AD950FA0FE96EFF0EDA20EA6EEECF4E
:103D8000E6FFEECFE6FFEECFE6FFEFCFE6FF05EC76
:103D900019F0006E050EE15C02E2E16AE552E16EA7
:0E3DA0000050E552E5CFDAFFE7CFD9FF120061
:023DAE00FF0E06
:103DB000E3502D6EEF0E01D0F30EE76EE72EDEEF2F
:103DC0001EF00C0E2C6EE76AE72EE4EF1EF02C2E90
:0C3DD000E3EF1EF02D2EDCEF1EF01200C1
:043DDC00160EF36E5E
:103DE00000EE00F00F0E01D81200EA6002D0EE6A79
:0C3DF000FCD7F350E9601200EE6AFCD72B
:043DFC001EEE00F0C7
:103E00002EEE00F0F86A279C06EC1EF003EC00F0A2
:083E1000B4EC1CF0FBD712001A
:083E18001B6A080EE76ED8904A
:103E20001F361B3624501B5C02E31B6E1F2AE72E35
:043E3000F7D71200AE
:0C3E3400FF0EE350E84E1200000000D02A
:0A3E400000D000D0E82EFAD71200DF
:020000040030CA
:010000001DE2
:0100010003FB
:01000200728B
:010003007C80
:010005008B6F
:00000001FF
