:020000040000FA
:060000001AEF1FF01200D0
:020006001200E6
:0600080027EF1DF01200BD
:02000E000000F0
:060010001827182700006C
:020016000204E2
:060018002EEF1DF01200A6
:02001E000200DE
:100020001600000072000000020000000E00000038
:080030006A0000000800000056
:08003800D9CFE6FFE1CFD9FFAB
:10004000020EE1260F010D6B0E6B136B0FEC11F01E
:10005000D768FE0ED66ED58E84B606D0F2A4FCD735
:10006000D768D66AF294F8D7030EDF6EDF50040823
:1000700019E3DE521C0EDD6E010EDB50670810E343
:10008000DFCFE6FF010EDBCFE6FF62EC1CF0E552AE
:10009000E552E66AF6EC1BF0E552010EDB2AECD7DE
:1000A000DF2AE4D7020EE15C02E2E16AE552E16E8A
:1000B000E552E7CFD9FF1200D9CFE6FFE1CFD9FF54
:1000C000070EE126D650010BE76E020EE7CFDBFFED
:1000D000030E006E246ED6CF1FF028EC1FF0010E29
:1000E0001BC0DBFF050E006E246ED6CF1FF028EC80
:1000F0001FF01F50DF6E010EDB500FE0030EDB6AB6
:10010000040EDB6A340EF36E050EF3CFDBFF430EF5
:10011000F36E060EF3CFDBFF08D0030EDB6A040E8E
:10012000DB6A050EDB6A060EDB6A020EDB5001E0BD
:10013000DF6C030EDBCF00F0040EDBCF01F0050E09
:10014000DBCF02F0060EDBCF03F0DFCF08F008C0F4
:100150001FF011EC16F01DC004F01EC005F01FC00A
:1001600006F020C007F01DC022F01EC023F01FC003
:1001700024F020C025F000C01DF001C01EF002C018
:100180001FF003C020F021EC16F0030E1DC0DBFFB2
:10019000040E1EC0DBFF050E1FC0DBFF060E20C0D5
:1001A000DBFF0F01006B016B800E026F420E036FCD
:1001B000046B056B066B076F030EDBCF08FF040EA5
:1001C000DBCF09FF050EDBCF0AFF060EDBCF0BFFEF
:1001D0000C6B0001180E6C6F270E6D6F180E6E6F92
:1001E000270E6F6F010EE66E96EC09F0E552020ED7
:1001F000E66E96EC09F0E552070EE15C02E2E16A78
:10020000E552E16EE552E7CFD9FF1200D9CFE6FF04
:10021000E1CFD9FF050EE1260F01010E136F0C513E
:1002200002E178EF08F000CF1DF001CF1EF002CF01
:100230001FF003CF20F024EC17F0030E1FC0DBFFEC
:1002400004CF1DF005CF1EF006CF1FF007CF20F022
:1002500024EC17F0040E1FC0DBFFDB500B0804E09A
:10026000040EDB500A0814E1160EF36E030EDBCF0A
:10027000F4FFF350F45C04E20F01010E0D6F2ED079
:10028000030EDB5069082AE20F01010E0E6F26D023
:100290000F010D050EE1040EDB500D0804E3030E03
:1002A000DB50160806E20D6B010EE66EA9EC08F0B5
:1002B000E5520F010E0512E1040EDB500D0808E3B4
:1002C000690EF36E030EDBCFF4FFF350F45C06E22D
:1002D0000E6B020EE66EA9EC08F0E552030EDB048D
:1002E00013E100016C51F36E040EDBCFF4FFF35009
:1002F000F45C0AE3040EDBCF00F06D51D8800054AB
:1003000003E3DE52010E16D0030EDB507E0814E12B
:1003100000016E51F36E040EDBCFF4FFF350F45C7A
:100320000BE3040EDBCF00F06F51D880005404E3E0
:10033000DE52020EDD6E02D0010EDB6A040EDB50CF
:10034000070B006E010E005204E0E846FE0B0006AB
:10035000FCE1DF6E040EDB50070B5EE1040EDB50A8
:10036000F80BE842E842E842FF0FE66E030EDBCFEF
:10037000E6FF62EC1CF0E552E552E66AF6EC1BF093
:10038000E552040EDB50F80BE842E842E842E66E24
:10039000030EDBCFE6FF62EC1CF0E552E552E66AA5
:1003A000F6EC1BF0E552010EDB0425E0040EDB50F9
:1003B000F80BE842E842E842FF0FE66E030EDB046A
:1003C000E66E62EC1CF0E552E552E66AF6EC1BF0D4
:1003D000E552040EDB50F80BE842E842E842E66ED4
:1003E000030EDB04E66E62EC1CF0E552E552E66AB1
:1003F000F6EC1BF0E552010EDB50020801E1ABD038
:10040000040EDB50F80BE842E842E842FF0FE66ECC
:10041000030EDB28E66E85D0040EDB50070B0708C1
:1004200064E1040EDB50F80BE842E842E842E66E75
:10043000030EDB04E66E62EC1CF0E552E552E66A60
:10044000F6EC1BF0E552040EDB50F80BE842E842F4
:10045000E842E66E030EDBCFE6FF62EC1CF0E552ED
:10046000E552E66AF6EC1BF0E552040EDB50F80BA1
:10047000E842E842E842E66E030EDB28E66E62ECF4
:100480001CF0E552E552E66AF6EC1BF0E552040E6C
:10049000DB50F80BE842E842E842010FE66E030E3B
:1004A000DB04E66E62EC1CF0E552E552E66AF6EC1F
:1004B0001BF0E552040EDB50F80BE842E842E8423C
:1004C000010FE66E030EDBCFE6FF62EC1CF0E55297
:1004D000E552E66AF6EC1BF0E552040EDB50F80B31
:1004E000E842E842E842010F2AD0040EDB50F80B44
:1004F000E842E842E842E66E030EDB04E66E62EC98
:100500001CF0E552E552E66AF6EC1BF0E552040EEB
:10051000DB50F80BE842E842E842E66E030EDBCF20
:10052000E6FF62EC1CF0E552E552E66AF6EC1BF0E1
:10053000E552040EDB50F80BE842E842E842E66E72
:10054000030EDB28E66E62EC1CF0E552E552E66A2B
:10055000F6EC1BF0E5528470040EDB0404E0040E9C
:10056000DB503E0819E1226A236A800E246EBF0E1A
:10057000256E08CF1DF009CF1EF00ACF1FF00BCF5C
:1005800020F0B7EC16F01DC008FF1EC009FF1FC009
:100590000AFF20C00BFF29D3010EDB0401E084D148
:1005A000040EDB500001D8806C55E66E010EE66E3D
:1005B000C0EC0AF0E552E552046A056A066A400E8C
:1005C000076E04C0E6FF05C0E6FF06C0E6FFE66E64
:1005D0004D0E226EF30E236E8E0E246E3C0E256E93
:1005E00008CF1DF009CF1EF00ACF1FF00BCF20F06F
:1005F000B7EC16F01DC00CF01EC00DF01FC00EF0C1
:1006000020C00FF01DC0E6FF1EC0E6FF1FC0E6FFC2
:1006100020C0E6FFCCEC1EF0E552E552E552E55273
:10062000E552E7CF07F0E552E7CF06F0E552E7CF16
:1006300005F0E552E7CF04F01CC008F01DC009F03A
:100640001EC00AF01FC00BF01CC022F01DC023F01A
:100650001EC024F01FC025F004C01DF005C01EF010
:1006600006C01FF007C020F0B7EC16F01DC000F068
:100670001EC001F01FC002F020C003F01DC022F018
:100680001EC023F01FC024F020C025F000CF1DF0B5
:1006900001CF1EF002CF1FF003CF20F021EC16F0A7
:1006A0001DC000FF1EC001FF1FC002FF20C003FFCE
:1006B000046A056A066A400E076E04C0E6FF05C0BC
:1006C000E6FF06C0E6FFE66E4D0E226EF30E236EC9
:1006D0008E0E246E3C0E256E08CF1DF009CF1EF045
:1006E0000ACF1FF00BCF20F0B7EC16F01DC00CF0B6
:1006F0001EC00DF01FC00EF020C00FF01DC0E6FFA1
:100700001EC0E6FF1FC0E6FF20C0E6FFA4EC1EF0FF
:10071000E552E552E552E552E552E7CF07F0E552E2
:10072000E7CF06F0E552E7CF05F0E552E7CF04F05A
:100730001CC008F01DC009F01EC00AF01FC00BF05D
:100740001CC022F01DC023F01EC024F01FC025F0E5
:1007500004C01DF005C01EF006C01FF007C020F049
:10076000B7EC16F01DC000F01EC001F01FC002F073
:1007700020C003F01DC022F01EC023F01FC024F0D3
:1007800020C025F004CF1DF005CF1EF006CF1FF0CE
:1007900007CF20F021EC16F01DC004FF1EC005FF9E
:1007A0001FC006FF20C007FF226A236AFC0E246ECA
:1007B000420E256E00CF1DF001CF1EF002CF1FF0BC
:1007C00003CF20F04BEC17F0010A07E10F01006B9B
:1007D000016BFC0E026F420E036F226A236A780ED1
:1007E000246E420E256E04CF1DF005CF1EF006CFFD
:1007F0001FF007CF20F04BEC17F0010A07E10F01C3
:10080000046B056B780E066F420E076F226A236A2F
:10081000800E246E3F0E256E00CF1DF001CF1EF01E
:1008200002CF1FF003CF20F054EC17F0010A07E1CC
:100830000F01006B016B800E026F3F0E036F226A87
:10084000236A800E246E3F0E256E04CF1DF005CF67
:100850001EF006CF1FF007CF20F054EC17F0010A6E
:1008600007E10F01046B056B800E066F3F0E076FEB
:1008700000CF1DF001CF1EF002CF1FF003CF20F0FC
:1008800024EC17F0030E1FC0DBFF04CF1DF005CFD3
:100890001EF006CF1FF007CF20F024EC17F0040E57
:1008A0001FC0DBFF010E88D1010EDB50020801E002
:1008B00087D1040EDB500001D8806E55E66E020E23
:1008C000E66EC0EC0AF0E552E552046A056A066A73
:1008D000400E076E04C0E6FF05C0E6FF06C0E6FF57
:1008E000E66E4D0E226EF30E236E8E0E246E3C0EBF
:1008F000256E08CF1DF009CF1EF00ACF1FF00BCFD9
:1009000020F0B7EC16F01DC00CF01EC00DF01FC09B
:100910000EF020C00FF01DC0E6FF1EC0E6FF1FC096
:10092000E6FF20C0E6FFCCEC1EF0E552E552E552B2
:10093000E552E552E7CF07F0E552E7CF06F0E55282
:10094000E7CF05F0E552E7CF04F01CC008F01DC06A
:1009500009F01EC00AF01FC00BF01CC022F01DC021
:1009600023F01EC024F01FC025F004C01DF005C0F8
:100970001EF006C01FF007C020F0B7EC16F01DC037
:1009800000F01EC001F01FC002F020C003F01DC027
:1009900022F01EC023F01FC024F020C025F000CF9D
:1009A0001DF001CF1EF002CF1FF003CF20F021EC8D
:1009B00016F01DC000FF1EC001FF1FC002FF20C0B7
:1009C00003FF046A056A066A400E076E04C0E6FF6C
:1009D00005C0E6FF06C0E6FFE66E4D0E226EF30E82
:1009E000236E8E0E246E3C0E256E08CF1DF009CFAF
:1009F0001EF00ACF1FF00BCF20F0B7EC16F01DC091
:100A00000CF01EC00DF01FC00EF020C00FF01DC076
:100A1000E6FF1EC0E6FF1FC0E6FF20C0E6FFA4EC15
:100A20001EF0E552E552E552E552E552E7CF07F0F8
:100A3000E552E7CF06F0E552E7CF05F0E552E7CF04
:100A400004F01CC008F01DC009F01EC00AF01FC051
:100A50000BF01CC022F01DC023F01EC024F01FC0EC
:100A600025F004C01DF005C01EF006C01FF007C031
:100A700020F0B7EC16F01DC000F01EC001F01FC042
:100A800002F020C003F01DC022F01EC023F01FC0E2
:100A900024F020C025F004CF1DF005CF1EF006CFB6
:100AA0001FF007CF20F021EC16F01DC004FF1EC080
:100AB00005FF1FC006FF20C007FF226A236AFC0E45
:100AC000246E420E256E00CF1DF001CF1EF002CF26
:100AD0001FF003CF20F04BEC17F0010A07E10F01E4
:100AE000006B016BFC0E026F420E036F226A236AD9
:100AF000780E246E420E256E04CF1DF005CF1EF039
:100B000006CF1FF007CF20F04BEC17F0010A07E1EA
:100B10000F01046B056B780E066F420E076F226A99
:100B2000236A800E246E3F0E256E00CF1DF001CF8C
:100B30001EF002CF1FF003CF20F054EC17F0010A93
:100B400007E10F01006B016B800E026F3F0E036F18
:100B5000226A236A800E246E3F0E256E04CF1DF09C
:100B600005CF1EF006CF1FF007CF20F054EC17F092
:100B7000010A07E10F01046B056B800E066F3F0E43
:100B8000076F00CF1DF001CF1EF002CF1FF003CF83
:100B900020F024EC17F0030E1FC0DBFF04CF1DF084
:100BA00005CF1EF006CF1FF007CF20F024EC17F082
:100BB000040E1FC0DBFF020EE66EB8DBE55215D057
:100BC000030EDB0406E1010EE66E9CDAE552010E2F
:100BD00008D0030EDB507E0808E1E66A93DAE5529E
:100BE000020EE66EB6DAE55283D2046A056A066A38
:100BF000400E076E04C0E6FF05C0E6FF06C0E6FF34
:100C0000E66E4D0E226EF30E236E8E0E246E3C0E9B
:100C1000256E08CF1DF009CF1EF00ACF1FF00BCFB5
:100C200020F0B7EC16F01DC00CF01EC00DF01FC078
:100C30000EF020C00FF01DC0E6FF1EC0E6FF1FC073
:100C4000E6FF20C0E6FFCCEC1EF0E552E552E5528F
:100C5000E552E552E7CF07F0E552E7CF06F0E5525F
:100C6000E7CF05F0E552E7CF04F01CC008F01DC047
:100C700009F01EC00AF01FC00BF01CC022F01DC0FE
:100C800023F01EC024F01FC025F004C01DF005C0D5
:100C90001EF006C01FF007C020F0B7EC16F01DC014
:100CA00000F01EC001F01FC002F020C003F01DC004
:100CB00022F01EC023F01FC024F020C025F000CF7A
:100CC0001DF001CF1EF002CF1FF003CF20F021EC6A
:100CD00016F01DC000FF1EC001FF1FC002FF20C094
:100CE00003FF046A056A066A400E076E04C0E6FF49
:100CF00005C0E6FF06C0E6FFE66E4D0E226EF30E5F
:100D0000236E8E0E246E3C0E256E08CF1DF009CF8B
:100D10001EF00ACF1FF00BCF20F0B7EC16F01DC06D
:100D20000CF01EC00DF01FC00EF020C00FF01DC053
:100D3000E6FF1EC0E6FF1FC0E6FF20C0E6FFA4ECF2
:100D40001EF0E552E552E552E552E552E7CF07F0D5
:100D5000E552E7CF06F0E552E7CF05F0E552E7CFE1
:100D600004F01CC008F01DC009F01EC00AF01FC02E
:100D70000BF01CC022F01DC023F01EC024F01FC0C9
:100D800025F004C01DF005C01EF006C01FF007C00E
:100D900020F0B7EC16F01DC000F01EC001F01FC01F
:100DA00002F020C003F01DC022F01EC023F01FC0BF
:100DB00024F020C025F004CF1DF005CF1EF006CF93
:100DC0001FF007CF20F021EC16F01DC004FF1EC05D
:100DD00005FF1FC006FF20C007FF226A236AFC0E22
:100DE000246E420E256E00CF1DF001CF1EF002CF03
:100DF0001FF003CF20F04BEC17F0010A07E10F01C1
:100E0000006B016BFC0E026F420E036F226A236AB5
:100E1000780E246E420E256E04CF1DF005CF1EF015
:100E200006CF1FF007CF20F04BEC17F0010A07E1C7
:100E30000F01046B056B780E066F420E076F226A76
:100E4000236A800E246E3F0E256E00CF1DF001CF69
:100E50001EF002CF1FF003CF20F054EC17F0010A70
:100E600007E10F01006B016B800E026F3F0E036FF5
:100E7000226A236A800E246E3F0E256E04CF1DF079
:100E800005CF1EF006CF1FF007CF20F054EC17F06F
:100E9000010A07E10F01046B056B800E066F3F0E20
:100EA000076F00CF1DF001CF1EF002CF1FF003CF60
:100EB00020F024EC17F0030E1FC0DBFF04CF1DF061
:100EC00005CF1EF006CF1FF007CF20F024EC17F05F
:100ED000040E1FC0DBFFDB50070B006E010E00523B
:100EE00004E0E846FE0B0006FCE1DF6E040EDB507A
:100EF000070B3DE1040EDB50F80BE842E842E84204
:100F0000FF0FE66E030EDB04E66E62EC1CF0E552AA
:100F1000E552800EE66EF6EC1BF0E552040EDB5057
:100F2000F80BE842E842E842FF0FE66E030EDBCF23
:100F3000E6FF62EC1CF0E552E552800EE66EF6EC40
:100F40001BF0E552040EDB50F80BE842E842E842A1
:100F5000FF0FE66E030EDB28E66E62EC1CF0E55236
:100F6000E552800EE66EF6EC1BF0E55281D0040EE1
:100F7000DB50070B070801E077D0DF407F0BDF1065
:100F8000DF6E040EDB50F80BE842E842E842E66E02
:100F9000030EDB04E66E62EC1CF0E552E552DFCF97
:100FA000E6FFF6EC1BF0E552040EDB50F80BE842CE
:100FB000E842E842E66E030EDBCFE6FF62EC1CF08F
:100FC000E552E552DFCFE6FFF6EC1BF0E552040EEA
:100FD000DB50F80BE842E842E842E66E030EDB28FD
:100FE000E66E62EC1CF0E552E552DFCFE6FFF6EC70
:100FF0001BF0E552040EDB50F80BE842E842E842F1
:10100000010FE66E030EDB04E66E62EC1CF0E552A7
:10101000E552010EE66EF6EC1BF0E552040EDB50D5
:10102000F80BE842E842E842010FE66E030EDBCF20
:10103000E6FF62EC1CF0E552E552010EE66EF6ECBE
:101040001BF0E552040EDB50F80BE842E842E842A0
:10105000010FE66E030EDB28E66E62EC1CF0E55233
:10106000E552010EE66E3ED0DF407F0BDF10DF6EF3
:10107000DF50E824DF10DF6E040EDB50F80BE8428F
:10108000E842E842E66E030EDB04E66E62EC1CF01A
:10109000E552E552DFCFE6FFF6EC1BF0E552040E19
:1010A000DB50F80BE842E842E842E66E030EDBCF85
:1010B000E6FF62EC1CF0E552E552DFCFE6FFF6EC0E
:1010C0001BF0E552040EDB50F80BE842E842E84220
:1010D000E66E030EDB28E66E62EC1CF0E552E5528C
:1010E000DFCFE6FFF6EC1BF0E5520F010C6BD58E5F
:1010F000050EE15C02E2E16AE552E16EE552E7CFFE
:10110000D9FF1200D9CFE6FFE1CFD9FFFE0EDB50A9
:1011100003E100016A2B05D0FE0EDB5002E0000166
:101120006B2B6CDBFE0EDB5002E1010E01D0020ED8
:10113000F36EFE0EF3CFDBFFB3EC1CF0FE0EDBCF45
:10114000E6FF07D8E5525CEC00F0E552E7CFD9FFA7
:101150001200D9CFE6FFE1CFD9FF030EE126FE0E44
:10116000DB0422E1010EDF6E00016A51D880DF54FA
:101170001BE3DF50E824050FE76E010EE7CFDBFF2E
:10118000020EE66EF3EC1EF0E552E66A010EDBCFCE
:10119000E6FF62EC1CF0E552E552FE0EE66EF6EC60
:1011A0001BF0E552DF2AE0D7FE0EDB50020824E1F7
:1011B000010EDF6E00016B51D880DF541DE37F0EFE
:1011C000006EDF50E824005CFB0FE76E020EE7CFF5
:1011D000DBFFE66EF3EC1EF0E552E66A020EDBCFB3
:1011E000E6FF62EC1CF0E552E552FE0EE66EF6EC10
:1011F0001BF0E552DF2ADED7030EE15C02E2E16A72
:10120000E552E16EE552E7CFD9FF120000017051BF
:1012100018E18450100B08E08450200B05E1010E0A
:10122000706FB180020E09D08450200B0AE0845008
:10123000100B07E1020E706FB180E66EF3EC1EF04A
:10124000E552000171511CE18850010B0CE08850FF
:10125000020B09E1010E716F7B80020EE66EF3EC6A
:101260001EF0E55212008850020B0AE08850010B74
:1012700007E1020E716F7B80E66EF3EC1EF0E55223
:1012800012000F01010E0C6FD00ECF6ECE6A9E9031
:10129000D59E1200B190000170050BE13E0E6D5D10
:1012A00015E2010EE66ED8D9E55200016C2B6D2BCC
:1012B0000DD0020E705D0AE16C51000807E2010ECC
:1012C000E66ECAD9E55200016C076D07C80EB36E11
:1012D000B26A706B010EE66E29D8E552A192120037
:1012E0007B90000171050BE13E0E6F5D15E2020E71
:1012F000E66EB2D9E55200016E2B6F2B0DD0020EB7
:10130000715D0AE16E51000807E2020EE66EA4D993
:10131000E55200016E076F07C80E7D6E7C6A716B27
:10132000020EE66E03D8E552BA921200D9CFE6FF5C
:10133000E1CFD9FF020EE126FE0EDB0401E082D0F0
:1013400000016C51F80BE842E842E842E76E010EFA
:10135000E7CFDBFF6C51070B006EFF0E005204E07D
:10136000E846FE0B0006FCE1DF6E010EDBCFE6FF78
:10137000E66A62EC1CF0E552E552DFCFE6FFF6ECE0
:101380001BF0E552010EDBCFE6FFE66E62EC1CF0CF
:10139000E552E552DFCFE6FFF6EC1BF0E552000127
:1013A0006D51F80BE842E842E842E76E010EE7CFE4
:1013B000DBFF0068070E016E6D51070B015C00C07A
:1013C000E7FF070B04E0E742E79EE806FCE1E75091
:1013D000DF6E010EDBCFE6FFE66A62EC1CF0E55241
:1013E000E552DFCFE6FFF6EC1BF0E552010EDBCF56
:1013F000E6FFE66E62EC1CF0E552E552DFCFE6FF59
:10140000F6EC1BF0E552010EDBCFE6FF00016C515C
:10141000F80BE842E842E842E552E75C020801E0E6
:10142000A5D0010EDB06DBCFE6FFE66A62EC1CF01E
:10143000E552E552E668F6EC1BF0E552010EDBCF13
:10144000E6FF8BD0FE0EDB50020801E08FD00001DA
:101450006E51F80BE842E842E842E76E010EE7CF32
:10146000DBFF6E51070B006EFF0E005204E0E846F2
:10147000FE0B0006FCE1DF6E010EDBCFE6FF7F0E08
:10148000E66E62EC1CF0E552E552DFCFE6FFF6ECCB
:101490001BF0E552010EDBCFE6FF7E0EE66E62EC3E
:1014A0001CF0E552E552DFCFE6FFF6EC1BF0E5520B
:1014B00000016F51F80BE842E842E842E76E010E86
:1014C000E7CFDBFF0068070E016E6F51070B015C71
:1014D00000C0E7FF070B04E0E742E79EE806FCE1F7
:1014E000E750DF6E010EDBCFE6FF7F0EE66E62ECAB
:1014F0001CF0E552E552DFCFE6FFF6EC1BF0E552BB
:10150000010EDBCFE6FF7E0EE66E62EC1CF0E552CC
:10151000E552DFCFE6FFF6EC1BF0E552010EDBCF24
:10152000E6FF00016E51F80BE842E842E842E5525E
:10153000E75C02081BE1010EDB06DBCFE6FF7F0E56
:10154000E66E62EC1CF0E552E552E668F6EC1BF044
:10155000E552010EDBCFE6FF7E0EE66E62EC1CF07C
:10156000E552E552E668F6EC1BF0E552020EE15C4E
:1015700002E2E16AE552E16EE552E7CFD9FF1200DF
:10158000D9CFE6FFE1CFD9FFE652080EF36EFD0E8C
:10159000DBCFF4FFF350F45C09E2FD0EDBCFE6FF96
:1015A000070EE552D880E754F60D08D0FD0EDB504B
:1015B000070814E2FD0EDB50F80F0A0DF350DF6E42
:1015C000DFCF00F000C01FF011EC16F01DC008FFC7
:1015D0001EC009FF1FC00AFF20C00BFFFE0EDB501C
:1015E000020835E1226A236A246A256A08CF1DF0C1
:1015F00009CF1EF00ACF1FF00BCF20F054EC17F0EC
:10160000010A06E1006A016A340E026EC30E05D0BB
:10161000006A016A340E026E430E036E08CF22F098
:1016200009CF23F00ACF24F00BCF25F000C01DF026
:1016300001C01EF002C01FF0206E20EC16F01DC08D
:1016400008FF1EC009FF1FC00AFF20C00BFFE552A4
:10165000E552E7CFD9FF1200D9CFE6FFE1CFD9FF9E
:10166000FE0EDB0401E07ED000016C51F80BE84275
:10167000E842E842E66EE66A62EC1CF0E552E552AA
:10168000E66AF6EC1BF0E55200016D51F80BE842FA
:10169000E842E842E66EE66A62EC1CF0E552E5528A
:1016A000E66AF6EC1BF0E55200016C51F80BE842DB
:1016B000E842E842E66E010EE66E62EC1CF0E5528E
:1016C000E552E66AF6EC1BF0E55200016D51F80BAD
:1016D000E842E842E842E66E010EE66E62EC1CF07B
:1016E000E552E552E66AF6EC1BF0E55200016C515A
:1016F000F80BE842E842E842E66E020EE66E62EC63
:101700001CF0E552E552E66AF6EC1BF0E5520001EA
:101710006D51F80BE842E842E842E66E020EE66ED2
:1017200062EC1CF0E552E552E66AF6EC1BF0E5527D
:1017300000016C51F80BE842E842E842E66E030E05
:10174000E66E62EC1CF0E552E552E66AF6EC1BF040
:10175000E55200016D51F80BE842E842E842E66EBE
:10176000030E3FD0FE0EDB50020844E100016E5133
:10177000F80BE842E842E842E66E7E0EE66E62EC66
:101780001CF0E552E552E66AF6EC1BF0E55200016A
:101790006F51F80BE842E842E842E66E7E0EE66ED4
:1017A00062EC1CF0E552E552E66AF6EC1BF0E552FD
:1017B00000016E51F80BE842E842E842E66E7F0E07
:1017C000E66E62EC1CF0E552E552E66AF6EC1BF0C0
:1017D000E55200016F51F80BE842E842E842E66E3C
:1017E0007F0EE66E62EC1CF0E552E552E66AF6EC1E
:1017F0001BF0E552E552E7CFD9FF1200D9CFE6FF43
:10180000E1CFD9FFE652DF6A080EDF5C31E2DFCFBD
:10181000E6FFE66A62EC1CF0E552E552E66AF6EC99
:101820001BF0E552DFCFE6FF010EE66E62EC1CF026
:10183000E552E552E66AF6EC1BF0E552DFCFE6FF33
:101840007F0EE66E62EC1CF0E552E552E66AF6ECBD
:101850001BF0E552DFCFE6FF7E0EE66E62EC1CF079
:10186000E552E552E66AF6EC1BF0E552DF2ACCD7EA
:10187000E552E552E7CFD9FF1200050E00016A5D7F
:1018800003E0050E6B5D03E10F01136B19D884A60D
:1018900016D0040EE66EF3EC1EF0E55284A60FD0CF
:1018A000A00EE66EF3EC1EF0E552A00EE66EF3EC31
:1018B0001EF0E5520F01130502E1136B01D812006F
:1018C000D9CFE6FFE1CFD9FF020EE1260F01135178
:1018D00002E005EF11F0010EE66E3BDCE552020E70
:1018E000E66E37DCE55200016B516A5D01E15DD3C4
:1018F000290EDF6E030EE66EDFCFE6FF62EC1CF012
:10190000E552E552E668F6EC1BF0E552030EE66E92
:10191000DF28E66E62EC1CF0E552E552090EE66E39
:10192000F6EC1BF0E552030EE66E020EDF24E66EC7
:1019300062EC1CF0E552E552090EE66EF6EC1BF087
:10194000E552030EE66EDF24E66E62EC1CF0E55213
:10195000E552090EE66EF6EC1BF0E552030EE66E5C
:10196000040EDF24E66E62EC1CF0E552E5520F0E29
:10197000E66EF6EC1BF0E552060EDF24DF6E030E7A
:10198000E66EDFCFE6FF62EC1CF0E552E552E6685A
:10199000F6EC1BF0E552030EE66EDF28E66E62EC15
:1019A0001CF0E552E552800EE66EF6EC1BF0E552B7
:1019B000030EE66E020EDF24E66E62EC1CF0E552CA
:1019C000E552800EE66EF6EC1BF0E552030EE66E75
:1019D000DF24E66E62EC1CF0E552E552800EE66E06
:1019E000F6EC1BF0E552050EDF24DF6E030EE66E0B
:1019F000DFCFE6FF62EC1CF0E552E552E668F6EC5C
:101A00001BF0E552030EE66EDF28E66E62EC1CF07A
:101A1000E552E552090EE66EF6EC1BF0E552030EB8
:101A2000E66E020EDF24E66E62EC1CF0E552E55233
:101A3000090EE66EF6EC1BF0E552030EE66EDF24AF
:101A4000E66E62EC1CF0E552E552090EE66EF6EC2D
:101A50001BF0E552030EE66E040EDF24E66E62EC28
:101A60001CF0E552E552E668F6EC1BF0E552060E76
:101A7000DF24DF6E030EE66EDFCFE6FF62EC1CF0C4
:101A8000E552E552010EE66EF6EC1BF0E552030E50
:101A9000E66EDF28E66E62EC1CF0E552E552020EBF
:101AA000E66EF6EC1BF0E552030EE66E020EDF2446
:101AB000E66E62EC1CF0E552E552040EE66EF6ECC2
:101AC0001BF0E552030EE66EDF24E66E62EC1CF0BE
:101AD000E552E552F80EE66EF6EC1BF0E552030E09
:101AE000E66E040EDF24E66E62EC1CF0E552E55271
:101AF000040EE66EF6EC1BF0E552030EE66E050EE4
:101B0000DF24E66E62EC1CF0E552E552020EE66E52
:101B1000F6EC1BF0E552030EE66E060EDF24E66ED1
:101B200062EC1CF0E552E552010EE66EF6EC1BF09D
:101B3000E552080EDF24DF6E030EE66EDFCFE6FF10
:101B400062EC1CF0E552E552E668F6EC1BF0E5525B
:101B5000030EE66EDF28E66E62EC1CF0E552E552FD
:101B6000890EE66EF6EC1BF0E552030EE66E020EF1
:101B7000DF24E66E62EC1CF0E552E552890EE66E5B
:101B8000F6EC1BF0E552030EE66EDF24E66E62EC27
:101B90001CF0E552E552890EE66EF6EC1BF0E552BC
:101BA000050EDF24DF6E030EE66EDFCFE6FF62EC8C
:101BB0001CF0E552E552E668F6EC1BF0E552030E28
:101BC000E66EDF28E66E62EC1CF0E552E552190E77
:101BD000E66EF6EC1BF0E552030EE66E020EDF2415
:101BE000E66E62EC1CF0E552E552290EE66EF6EC6C
:101BF0001BF0E552030EE66EDF24E66E62EC1CF08D
:101C0000E552E552490EE66EF6EC1BF0E552030E86
:101C1000E66E040EDF24E66E62EC1CF0E552E5523F
:101C20008F0EE66EF6EC1BF0E552070EDF24DF6E3A
:101C300000016B51D8806A5542E2030EE66EDFCF99
:101C4000E6FF62EC1CF0E552E552820EE66EF6EC21
:101C50001BF0E552030EE66EDF28E66E62EC1CF028
:101C6000E552E552810EE66EF6EC1BF0E552030EEE
:101C7000E66E020EDF24E66E62EC1CF0E552E552E1
:101C8000E668F6EC1BF0E552030EE66EDF24E66E26
:101C900062EC1CF0E552E552800EE66EF6EC1BF0AD
:101CA000E552030EE66E040EDF24E66E62EC1CF0D5
:101CB000E552E552800EE66EF6EC1BF0E5520001AF
:101CC0006A51D8806B5543E2030EE66EDFCFE6FF24
:101CD00062EC1CF0E552E552830EE66EF6EC1BF06A
:101CE000E552030EE66EDF28E66E62EC1CF0E5526C
:101CF000E552C10EE66EF6EC1BF0E552030EE66E01
:101D0000020EDF24E66E62EC1CF0E552E552A10EF5
:101D1000E66EF6EC1BF0E552030EE66EDF24E66E8F
:101D200062EC1CF0E552E552910EE66EF6EC1BF00B
:101D3000E552030EE66E040EDF24E66E62EC1CF044
:101D4000E552E5528F0EE66EF6EC1BF0E552320ED0
:101D5000DF6E040EE66EDFCFE6FF62EC1CF0E552AC
:101D6000E552E668F6EC1BF0E552040EE66EDF285D
:101D7000E66E62EC1CF0E552E552800EE66EF6EC83
:101D80001BF0E552040EE66E020EDF24E66E62ECF6
:101D90001CF0E552E552600EE66EF6EC1BF0E552E3
:101DA000040EE66E030EDF24E66E62EC1CF0E552D4
:101DB000E552100EE66EF6EC1BF0E552040EE66EF0
:101DC000DF24E66E62EC1CF0E552E552600EE66E32
:101DD000F6EC1BF0E552040EE66E050EDF24E66E0F
:101DE00062EC1CF0E552E552800EE66EF6EC1BF05C
:101DF000E552040EE66E060EDF24E66E62EC1CF081
:101E0000E552E552E668F6EC1BF0E552080EDF24D9
:101E1000DF6E040EE66EDFCFE6FF62EC1CF0E552EB
:101E2000E552810EE66EF6EC1BF0E552040EE66E0E
:101E3000DF28E66E62EC1CF0E552E552E668F6EC4F
:101E40001BF0E552040EE66E020EDF24E66E62EC35
:101E50001CF0E552E552810EE66EF6EC1BF0E55201
:101E6000040EDF24DF6E040EE66EDFCFE6FF62ECC9
:101E70001CF0E552E552E668F6EC1BF0E552040E64
:101E8000E66EDF28E66E62EC1CF0E552E552030ECA
:101E9000E66EF6EC1BF0E552040EE66E020EDF2451
:101EA000E66E62EC1CF0E552E5520C0EE66EF6ECC6
:101EB0001BF0E552040EE66E030EDF24E66E62ECC4
:101EC0001CF0E552E552300EE66EF6EC1BF0E552E2
:101ED000040EE66EDF24E66E62EC1CF0E552E5527D
:101EE000C00EE66EF6EC1BF0E552040EE66E050E33
:101EF000DF24E66E62EC1CF0E552E552E668F6EC93
:101F00001BF0E552070EDF24DF6E040EE66EDFCF16
:101F1000E6FF62EC1CF0E552E5528F0EE66EF6EC41
:101F20001BF0E552040EE66EDF28E66E62EC1CF054
:101F3000E552E552890EE66EF6EC1BF0E552040E12
:101F4000E66E020EDF24E66E62EC1CF0E552E5520E
:101F5000890EE66EF6EC1BF0E552040EE66E030EFB
:101F6000DF24E66E62EC1CF0E552E552890EE66E67
:101F7000F6EC1BF0E552040EE66EDF24E66E62EC32
:101F80001CF0E552E552F90EE66EF6EC1BF0E55258
:101F9000060EDF24DF6E040EE66EDFCFE6FF62EC96
:101FA0001CF0E552E552BF0EA2D0380EDF6E040ED3
:101FB000E66EDFCFE6FF62EC1CF0E552E552010E63
:101FC000E66EF6EC1BF0E552040EE66EDF28E66ED8
:101FD00062EC1CF0E552E552010EE66EF6EC1BF0E9
:101FE000E552040EE66E020EDF24E66E62EC1CF093
:101FF000E552E552E668F6EC1BF0E552040EE66E9B
:10200000030EDF24E66E62EC1CF0E552E552010E91
:10201000E66EF6EC1BF0E552040EE66EDF24E66E8B
:1020200062EC1CF0E552E552010EE66EF6EC1BF098
:10203000E552060EDF24DF6E040EE66EDFCFE6FF0C
:1020400062EC1CF0E552E552810EE66EF6EC1BF0F8
:10205000E552040EE66EDF28E66E62EC1CF0E552F7
:10206000E552E668F6EC1BF0E552040EE66E020E51
:10207000DF24E66E62EC1CF0E552E552810EE66E5E
:10208000F6EC1BF0E552040EDF24DF6E040EE66E64
:10209000DFCFE6FF62EC1CF0E552E552E668F6ECB5
:1020A0001BF0E552040EE66EDF28E66E62EC1CF0D3
:1020B000E552E552890EE66EF6EC1BF0E552040E91
:1020C000E66E020EDF24E66E62EC1CF0E552E5528D
:1020D000890EE66EF6EC1BF0E552040EE66E030E7A
:1020E000DF24E66E62EC1CF0E552E552890EE66EE6
:1020F000F6EC1BF0E55200016A6B6B6BA00EE66E0E
:10210000F3EC1EF0E552A00EE66EF3EC1EF0E55285
:10211000A00EE66EF3EC1EF0E552A00EE66EF3ECB8
:102120001EF0E552A00EE66EF3EC1EF0E552A00E96
:10213000E66EF3EC1EF0E552DE52030EDD6E010E8C
:10214000DB50040817E3190EDF6EDF5066080FE35B
:10215000010EDBCFE6FFDFCFE6FF62EC1CF0E552BD
:10216000E552E66AF6EC1BF0E552DF2AEED7010EE7
:10217000DB2AE5D7010EDB6AF36EDBCFF4FFE85014
:10218000F45C17E2030EDF6EDF507C080FE3010EF4
:10219000DBCFE6FFDFCFE6FF62EC1CF0E552E55255
:1021A000E66AF6EC1BF0E552DF2AEED7010EDB2AD9
:1021B000E3D735D80F01136B84A6FED7010EDB6A77
:1021C000DB50080816E3DF6ADF507F080FE3010EDB
:1021D000DBCFE6FFDFCFE6FF62EC1CF0E552E55215
:1021E000E66AF6EC1BF0E552DF2AEED7010EDB2A99
:1021F000E7D75CEC00F0010EE66E96EC09F0E552D4
:10220000020EE66E96EC09F0E552020EE15C02E287
:10221000E16AE552E16EE552E7CFD9FF1200D9CF6E
:10222000E6FFE1CFD9FF050EE126030EE66E1C0E98
:10223000E66E62EC1CF0E552E552E668F6EC1BF047
:10224000E552040EE66E1C0EE66E62EC1CF0E552E2
:10225000E552E668F6EC1BF0E552030EE66E1D0E45
:10226000E66E62EC1CF0E552E552E668F6EC1BF017
:10227000E552040EE66E1D0EE66E62EC1CF0E552B1
:10228000E552E668F6EC1BF0E552030EE66E1E0E14
:10229000E66E62EC1CF0E552E552830EE66EF6EC5B
:1022A0001BF0E552040EE66E1E0EE66E62EC1CF0AC
:1022B000E552E552C10EE66EF6EC1BF0E552030E58
:1022C000E66E1F0EE66E62EC1CF0E552E552830EE0
:1022D000E66EF6EC1BF0E552040EE66E1F0EE66E9F
:1022E00062EC1CF0E552E552C10EE66EF6EC1BF016
:1022F000E552030EE66E200EE66E62EC1CF0E5522F
:10230000E552830EE66EF6EC1BF0E552040EE66E27
:10231000200EE66E62EC1CF0E552E552C10EE66E50
:10232000F6EC1BF0E552030EE66E210EE66E62EC53
:102330001CF0E552E552860EE66EF6EC1BF0E55217
:10234000040EE66E210EE66E62EC1CF0E552E552DC
:10235000610EE66EF6EC1BF0E552030EE66E220E01
:10236000E66E62EC1CF0E552E552860EE66EF6EC87
:102370001BF0E552040EE66E220EE66E62EC1CF0D7
:10238000E552E552610EE66EF6EC1BF0E552030EE7
:10239000E66E230EE66E62EC1CF0E552E552CC0EC2
:1023A000E66EF6EC1BF0E552040EE66E230EE66ECA
:1023B00062EC1CF0E552E552330EE66EF6EC1BF0D3
:1023C000E552030EE66E240EE66E62EC1CF0E5525A
:1023D000E5527C0EE66EF6EC1BF0E552040EE66E5E
:1023E000240EE66E62EC1CF0E552E5523E0EE66EFF
:1023F000F6EC1BF0E552030EE66E250EE66E62EC7F
:102400001CF0E552E552300EE66EF6EC1BF0E5529C
:10241000040EE66E250EE66E62EC1CF0E552E55207
:102420000C0EE66EF6EC1BF0E552030EE66E290E7E
:10243000E66E62EC1CF0E552E552E668F6EC1BF045
:10244000E552040EE66E290EE66E62EC1CF0E552D3
:10245000E552E668F6EC1BF0E552030EE66E2A0E36
:10246000E66E62EC1CF0E552E552E668F6EC1BF015
:10247000E552040EE66E2A0EE66E62EC1CF0E552A2
:10248000E552E668F6EC1BF0E5522B0EDF6E330EDC
:10249000DF5C1CE2030EE66EDFCFE6FF62EC1CF0B1
:1024A000E552E552830EE66EF6EC1BF0E552040EA3
:1024B000E66EDFCFE6FF62EC1CF0E552E552C10E9E
:1024C000E66EF6EC1BF0E552DF2AE1D7360EDF6E42
:1024D000030EE66EDFCFE6FF62EC1CF0E552E5523C
:1024E000FC0EE66EF6EC1BF0E552040EE66EDFCF56
:1024F000E6FF62EC1CF0E552E5523F0EE66EF6ECAC
:102500001BF0E552030EE66EDF28E66E62EC1CF06F
:10251000E552E552FE0EE66EF6EC1BF0E552040EB7
:10252000E66EDF28E66E62EC1CF0E552E5527F0EA7
:10253000E66EF6EC1BF0E552030EE66E020EDF24AB
:10254000E66E62EC1CF0E552E552070EE66EF6EC24
:102550001BF0E552040EE66E020EDF24E66E62EC1E
:102560001CF0E552E552E00EE66EF6EC1BF0E5528B
:10257000030EE66EDF24E66E62EC1CF0E552E552D7
:10258000030EE66EF6EC1BF0E552040EE66E030E4B
:10259000DF24E66E62EC1CF0E552E552C00EE66EFA
:1025A000F6EC1BF0E552030EE66E040EDF24E66E39
:1025B00062EC1CF0E552E552030EE66EF6EC1BF001
:1025C000E552040EE66EDF24E66E62EC1CF0E55286
:1025D000E552C00EE66EF6EC1BF0E552030EE66E19
:1025E000050EDF24E66E62EC1CF0E552E552830E28
:1025F000E66EF6EC1BF0E552040EE66E050EDF24E7
:10260000E66E62EC1CF0E552E552C10EE66EF6ECA9
:102610001BF0E552030EE66E060EDF24E66E62EC5A
:102620001CF0E552E552830EE66EF6EC1BF0E55227
:10263000040EE66E060EDF24E66E62EC1CF0E55238
:10264000E552C10EE66EF6EC1BF0E552030EE66EA7
:10265000070EDF24E66E62EC1CF0E552E552830EB5
:10266000E66EF6EC1BF0E552040EE66E070EDF2474
:10267000E66E62EC1CF0E552E5527F0EE66EF6EC7B
:102680001BF0E552030EE66E080EDF24E66E62ECE8
:102690001CF0E552E552870EE66EF6EC1BF0E552B3
:1026A000040EE66E080EDF24E66E62EC1CF0E552C6
:1026B000E5523F0EE66EF6EC1BF0E552030EE66EB9
:1026C000090EDF24E66E62EC1CF0E552E552870E3F
:1026D000E66EF6EC1BF0E552040EE66E090EDF2402
:1026E000E66E62EC1CF0E552E552010EE66EF6EC89
:1026F0001BF0E552110EDF24DF6E030EE66EDFCF16
:10270000E6FF62EC1CF0E552E552E668F6EC1BF0E1
:10271000E552040EE66EDFCFE6FF62EC1CF0E552F8
:10272000E552E668F6EC1BF0E552030EE66EDF04B8
:10273000E66E62EC1CF0E552E552E668F6EC1BF042
:10274000E552040EE66EDF04E66E62EC1CF0E55224
:10275000E552E668F6EC1BF0E552030EE66E020E5B
:10276000DF5CE66E62EC1CF0E552E552030EE66EAD
:10277000F6EC1BF0E552030EE66EDF5CE66E62ECF3
:102780001CF0E552E552030EE66EF6EC1BF0E55246
:10279000030EE66EDF28E66E62EC1CF0E552E552B1
:1027A000030EE66EF6EC1BF0E552030EE66E020E2B
:1027B000DF24E66E62EC1CF0E552E552030EE66E95
:1027C000F6EC1BF0E552040EE66E020EDF5CE66EE0
:1027D00062EC1CF0E552E552C00EE66EF6EC1BF022
:1027E000E552040EE66E030EDF5CE66E62EC1CF052
:1027F000E552E552C00EE66EF6EC1BF0E552040E13
:10280000E66EDF28E66E62EC1CF0E552E552C00E83
:10281000E66EF6EC1BF0E552040EE66E020EDF24C7
:10282000E66E62EC1CF0E552E552C00EE66EF6EC88
:102830001BF0E552080EDF24DF6E030EE66EDFCFDD
:10284000E6FF62EC1CF0E552E552E668F6EC1BF0A0
:10285000E552040EE66EDFCFE6FF62EC1CF0E552B7
:10286000E552E668F6EC1BF0E552030EE66EDF0477
:10287000E66E62EC1CF0E552E552E668F6EC1BF001
:10288000E552040EE66EDF04E66E62EC1CF0E552E3
:10289000E552E668F6EC1BF0E552DE52010EDD6E05
:1028A000F36E030EF3CFDBFF010EF36E040EF3CFD6
:1028B000DBFFDF28E76E020EE7CFDBFFDBCF00F0A8
:1028C000DF28080FD88000543DE3030EE66E010EAA
:1028D000DB50DF24E66E62EC1CF0E552E552030E9D
:1028E000DBCFE6FFDB50E824E552E724E66EF6ECAA
:1028F0001BF0E552030EE66E010EDBCFE6FFDF288C
:10290000E552E724E66E62EC1CF0E552E552030E58
:10291000DBCFE6FFDB50E824E552E724E66EF6EC79
:102920001BF0E552040EDB2ADB50010B02E1010E25
:10293000DB2A030EDB50020D030EF3CFDBFF020E8A
:10294000DB2ABCD7010EF36E030EF3CFDBFF010EC3
:10295000F36E040EF3CFDBFF010EDB06020EDFCFBA
:10296000DBFFDBCF00F0DF28080FD88000543DE309
:10297000040EE66E010EDB50DF24E66E62EC1CF006
:10298000E552E552030EDBCFE6FFDB50E824E552CB
:10299000E724E66EF6EC1BF0E552040EE66E010E3F
:1029A000DBCFE6FFDF28E552E724E66E62EC1CF0A1
:1029B000E552E552030EDBCFE6FFDB50E824E5529B
:1029C000E724E66EF6EC1BF0E552040EDB2ADB5042
:1029D000010B02E1010EDB2A030EDB50020D030E98
:1029E000F3CFDBFF020EDB2ABCD7010EDB06030EA2
:1029F000E66E010EDB50DF24E66E62EC1CF0E55261
:102A0000E552E668F6EC1BF0E552040EE66E010EA8
:102A1000DB50DF24E66E62EC1CF0E552E552E6681E
:102A2000F6EC1BF0E552030EE66E010EDB50DF24E0
:102A3000010FE66E62EC1CF0E552E552E668F6EC3A
:102A40001BF0E552040EE66E010EDB50DF24010F91
:102A5000E66E62EC1CF0E552E552E668F6EC1BF01F
:102A6000E5520F0EDF24DF6E030EE66EDFCFE6FFCA
:102A700062EC1CF0E552E552040EE66EF6EC1BF03B
:102A8000E552030EE66EDF28E66E62EC1CF0E552BE
:102A9000E552020EE66EF6EC1BF0E552020EF36E06
:102AA000DB6EDB50060812E3030EE66E020EDB500F
:102AB000DF24E66E62EC1CF0E552E552030EE66E92
:102AC000F6EC1BF0E552020EDB2AEBD7030EE66EA6
:102AD000020EDB50DF24E66E62EC1CF0E552E5529C
:102AE000060EE66EF6EC1BF0E552030EE66E020EE5
:102AF000DB50DF24010FE66E62EC1CF0E552E5527C
:102B00000C0EE66EF6EC1BF0E552030EE66E020EBE
:102B1000DB50DF24020FE66E62EC1CF0E552E5525A
:102B2000F80EE66EF6EC1BF0E552040EE66E020EB1
:102B3000DB50DF24020FE66E62EC1CF0E552E5523A
:102B4000010EE66EF6EC1BF0E552040EE66E020E88
:102B5000DB50DF24E66E62EC1CF0E552E552010E1C
:102B6000E66EF6EC1BF0E552040EE66E020EDB504C
:102B7000DF24010FE66E62EC1CF0E552E552030E15
:102B8000E66EF6EC1BF0E552040EE66E020EDB502C
:102B9000DF24E66E62EC1CF0E552E552060EE66EAE
:102BA000F6EC1BF0E552040EE66E020EDB50DF245D
:102BB000FF0FE66E62EC1CF0E552E5520C0EE66E7D
:102BC000F6EC1BF0E552040EE66E020EDB50DF243D
:102BD000FE0FE66E62EC1CF0E552E552BC0EE66EAE
:102BE000F6EC1BF0E552040EE66E020EDB50DF241D
:102BF000FD0FE66E62EC1CF0E552E552BC0EE66E8F
:102C0000F6EC1BF0E552050EE15C02E2E16AE552EA
:0E2C1000E16EE552E7CFD9FF1200F2941200F8
:022C1E00279EEF
:102C200005D0279E1FAE02D01F6C278E1FC019F043
:102C3000186A2B6A2A6A860E1A6E1B6ACEEF17F084
:102C4000257E276A0AEC18F022EC18F027B6B2EFBE
:102C500017F027A20AD027AA03D027BEB2EF17F099
:102C600027A4BEEF17F0BBEF17F027AA05D027ACBB
:102C7000BEEF17F0BBEF17F027A00AD027A808D0A7
:102C800027BE04D027A402D0C7EF17F0CBEF17F070
:102C90002A6A1B6A2550205C296E10E31DC02BF0A8
:102CA0001EC018F01FC019F020C028F022C01DF06F
:102CB00023C01EF024C01FF0273A09D022C02BF0F9
:102CC00023C018F024C019F025C028F0296C279ED5
:102CD00027BC278E28C01AF027B0FAEF17F01A0E7B
:102CE0002960FAEF17F01A6A206A27A408D01D6C31
:102CF0001E1E1F1E201EE86A1E221F22202227AC35
:102D000008D02B6C181E191E1A1EE86A18221922E8
:102D10001A221C6A295207E020341F321E321D324B
:102D20001C32292EF9D71D502B261E5018221F5059
:102D3000192220501A221CC02AF0279E1AAE0BD04E
:102D40002A6C2B1E181E191E1A1EE86A2B22182226
:102D500019221A22278E1AA006D0D88019321832CA
:102D60002B322A32282A28C01AF0CEEF17F0276A11
:102D70000AEC18F022EC18F027B6B2EF17F027A2F1
:102D800005D027B8B2EF17F0B9EF17F027AA05D092
:102D900027B0B2EF17F0B9EF17F027B002D027A88D
:102DA00002D0C5EF17F01B6A255020241A6EE86A7E
:102DB0001B227E0E1A5EE86A1B5A2A6A2B6A186A60
:102DC000196A24501F02F4CF19F0F3CF18F02350E2
:102DD0001F02F3502B26F4501822000E1922245003
:102DE0001E02F3502B26F4501822000E19222250F6
:102DF0001F02F3502A26F4502B22000E182219220B
:102E000023501E02F3502A26F4502B22000E1822C3
:102E1000192224501D02F3502A26F4502B22000EB2
:102E20001822192222501E02F4502A26000E2B22AC
:102E30001822192223501D02F4502A26000E2B229C
:102E400018221922CEEF17F0276A0AEC18F027B6DD
:102E50002EEF17F027A20AD027B403D07F0E1F6EE3
:102E600019D0800E1F6E16D01F6A14D027B0FCD761
:102E7000870E2060F1D77E0E2064F6D7860E205C88
:102E800004E0D8901F32202AF9D727A403D01F6C62
:102E90001FAEEAD712005DEC17F027B6000C27B082
:102EA000000C27B4000C010C5DEC17F027B6000CE9
:102EB00027B0000C27A4000C010C276A0AEC18F0BC
:102EC00022EC18F027B6120027AE08D027A004D0B5
:102ED00027A802D027801200279012002550205CDE
:102EE0000BE124501F5C08E123501E5C05E12250D9
:102EF0001D5C02E127801200D8A002D0278E10D0DE
:102F0000205025C020F0256E1F5024C01FF0246ED5
:102F10001E5023C01EF0236E1D5022C01DF0226ED5
:102F20002550205C10E0FF0F09E0279027B403D064
:102F300027AE2784120027AE27941200252AD890A6
:102F400024322332223222501D5E23501E5A245036
:102F50001F5A1FBEEAD7D8901D361E361F36202EA8
:102F6000F8D7C8D77F0E206EFF0E1F6E1E6E1D6E27
:102F700012007F0E27BEFF0E206E02D07F0E206E45
:102F8000800E1F6E1E6A1D6AF3D727AE04D0800E16
:102F9000206E1F6AF7D7206A1F6AF4D719501810DD
:102FA0002B102A10F8E01BBEF0D719BE0CD01A5017
:102FB0001B10EBE0D8902A362B36183619361A0635
:102FC000D8A01B06F2D71B50D4E11A28D2E02AAEB3
:102FD00011D07F0E2A1402E12BA00CD02B2AE86A14
:102FE0001822192207E3D880193218322B321A2AF4
:102FF0001A28BFE01A50C9E02BC01DF018C01EF0FF
:1030000019341F6E1A30206E1F32209E27BE208E6C
:10301000B8EF17F01F36203602E32784277E06E13B
:103020002780206A1F6A1E6A1D6A1200202803E09A
:10303000D8801F321200D8901F3202E1278212007E
:10304000278612002436253602E3278C277E06E1E8
:103050002788256A246A236A226A1200252803E049
:10306000D88024321200D8902432EAE1278A120054
:10307000279E08D0279E1FAE05D01E6C1F1EE86A33
:103080001F22278E1FC019F01EC018F02B6A2A6A53
:103090008E0E1A6E1B6ACEEF17F0279E0CD0279E5D
:1030A0001FAE09D01C6C1D1E1E1E1F1EE86A1D22AD
:1030B0001E221F22278E1FC019F01EC018F01DC02F
:1030C0002BF01CC02AF09E0E1A6E1B6ACEEF17F072
:1030D000276A0AEC18F022EC18F027B6B2EF17F0C6
:1030E00027A205D027BAB2EF17F0B9EF17F027BA29
:1030F000C5EF17F027A005D027B8B2EF17F0C5EF3E
:1031000017F027B8B9EF17F01B6A7F0E20241A6E4C
:10311000E86A1B2225501A5EE86A1B5A1A0E286EAE
:10312000206A2A6A2B6A186A196A22501D5E235087
:103130001E5A24501F5A000E205A09E722501D26FD
:1031400023501E2224501F22000E202201D02A8A42
:10315000D8901D361E361F362036D8902A362B368C
:1031600018361936282EE1D71F501E101D10D8A46E
:103170002A8ACEEF17F0276A0AEC18F027B6C5EFB7
:1031800018F027A20ED027B405D07F0E1F6EFF0EB9
:103190001E6E1FD0800E1F6E1E6A1BD01F6A1E6A15
:1031A00018D027B0FBD78F0E2060EDD77E0E20649D
:1031B000F5D78E0E205C05E0D8901F321E32202AF3
:1031C000F8D727A406D01E6C1F1EE86A1F221FAE68
:1031D000E5D71200276A0AEC18F027B6F4EF18F0CA
:1031E00027A20FD027B407D07F0E1F6EFF0E1E6ED2
:1031F0001D6E1C6E25D0800E1F6E01D01F6A000E42
:10320000F6D727B0FBD71C6A9F0E2060EBD77E0E47
:103210002064F4D79E0E205C07E0D8901F321E3247
:103220001D321C32202AF6D727A40AD01C6C1D1E82
:103230001E1E1F1EE86A1D221E221F221FAEDED781
:0232400012007A
:0E324200D9CFE6FFDACFE6FFE1CFD9FFE2CF2A
:10325000DAFF220EE12402E3E168E652E16ED95082
:10326000130FE66E000EDA20E66EA8DA94EC1DF07D
:10327000006E060EE15C02E2E16AE552E16E00508A
:10328000E76E0E0EE7CFDBFFDB50840B0CE0210E68
:103290000F01146F156B0F0EDB68100EDB68110E3B
:1032A000DB687F0E6ED08ADA36DA020E1CC0DBFFD6
:1032B000030E1DC0DBFF040E1EC0DBFF050E1FC08A
:1032C000DBFF87DA226A100E236E490E246E460E4B
:1032D00014DA54EC17F0010A32E07BDA67DA0DDA1F
:1032E00068EC18F0BFD9060EDBCF1DF0070EDBCF60
:1032F0001EF0080EDBCF1FF0090EDBCF20F0EAEC4A
:1033000018F04FEC18F0AED964DA060EDBCF08F0F7
:10331000070EDBCF09F0080EDBCF0AF0090EDBCF7A
:103320000BF044DA256E08C01DF009C01EF00AC07B
:103330001FF00BC020F048DA20EC16F0C4D9F90ECB
:10334000DB5012E00E0EDB040BE1FA0EDBCF00F0D7
:10335000FB0EDBCF01F0FC0EDBCF02F0FD0E52D1F5
:1033600067D9246AF8D947D00E0EDB0419E10F0E95
:10337000DB6A100EDB6A800EF36E110EF3CFDBFFFB
:103380003F0EF36E120EF3CFDBFF0F0EDBCF00F01C
:10339000100EDBCF01F0110EDBCF02F0120E32D196
:1033A000190EDB6A45D9800E246ED5D9006A016AF0
:1033B000026A3F0E036ED950060FE96E000EDA2046
:1033C000EA6EEECF1DF0EECF1EF0EECF1FF0EFCF86
:1033D00020F000C022F001C023F002C024F003C09E
:1033E00025F020EC16F020C0EDFF1FC0EDFF1EC041
:1033F000EDFF1DC0EFFFDF50010B0AE0190EDB509F
:1034000002E0000E01D0010EE76E190EE7CFDBFFE0
:103410008CD9060EDBCF0CF0070EDBCF0DF0080EBB
:10342000DBCF0EF0090EDBCF0FF0226A236A490EC4
:10343000246E400E256E0CC01DF00DC01EF00EC097
:103440001FF00FC020F0B7EC16F05CD9A6D995D9C3
:1034500020EC16F077D9060EDBCF14F0070EDBCF89
:1034600015F0080EDBCF16F0090EDBCF17F0220E99
:10347000226EAA0E236E7D0E246E3A0E256E14C0A7
:103480001DF015C01EF016C01FF017C020F0B7ECDD
:1034900016F01DC010F01EC011F01FC012F020C0A9
:1034A00013F0EDD820EC16F00A0E1DC0DBFF0B0E5A
:1034B0001EC0DBFF0C0E1FC0DBFF0D0E20C0DBFFAC
:1034C000D9500A0FE96E000EEAD825D91CC000F0C9
:1034D0001DC001F01EC002F01FC003F0226A236A63
:1034E000800E246E390E256E1CC01DF04FD954EC91
:1034F00017F0010A13E1D9500A0FE96E000EDA2025
:10350000EA6E020EEECFDBFF030EEECFDBFF040E02
:10351000EECFDBFF050EEECFDBFF68D0E1D80A0E61
:10352000DBCF22F00B0EDBCF23F00C0EDBCF24F031
:103530000D0EDBCF25F0B7EC16F01A0E1DC0DBFF29
:103540001B0E1EC0DBFF1C0E1FC0DBFF1D0E20C0AC
:10355000DBFF5B0E1D6E9C0E1E6E2E0E1F6E360E5A
:10356000206E72D8CFD8220E226EB20E236E4F0E6E
:10357000246EB90E32D99ED83E0E226E870E236E6F
:10358000080E246E3C0E29D9DDD8A40E226EAA0E98
:10359000236E2A0E246EBE0E20D91E0E1DC0DBFF28
:1035A0001F0E1EC0DBFF200E1FC0DBFF210E20C040
:1035B000DBFF0A0EDBCF00F00B0EDBCF01F00C0EB1
:1035C000DBCF02F00D0EDBCF03F08AD81E0EDBCF6F
:1035D00022F01F0EDBCF23F0200EDBCF24F0210ED4
:1035E000DBCF25F0F1D821EC16F06DD8190EDB50A9
:1035F00008E09BD8226A236A800E246EBF0EF0D8A2
:1036000003D042D8DBCF03F000C01CF001C01DF096
:1036100002C01EF003C01FF0220EE15C02E2E16A6C
:10362000E552E16EE552E5CFDAFFE7CFD9FF1200B0
:103630007CD8830E226EF90E236EA20E246E3E0EEF
:10364000CFD8226A236A12001A0EDBCF22F01B0E9B
:10365000DBCF23F01C0EDBCF24F01D0EDBCF25F0DB
:10366000B7EF16F0060E1DC0DBFF070E1EC0DBFF16
:10367000080E1FC0DBFF090E20C0DBFF12008DD833
:1036800000C01DF0C6EF1BF0020EDBCF00F0030EF2
:10369000DBCF01F0040EDBCF02F0050E1200DA20C2
:1036A000EA6EEECFE6FFEECFE6FFEECFE6FFEFCF1E
:1036B000E6FF12001DC004F01EC005F01FC006F09A
:1036C00020C007F01200020E1DC0DBFF030E1EC05B
:1036D000DBFF040E1FC0DBFF050E20C0DBFF120066
:1036E0000A0EDBCF1DF00B0EDBCF1EF00C0EDBCF76
:1036F0001FF00D0EDBCF20F01200256E00C01DF074
:10370000C6EF1BF01DC008F01EC009F01FC00AF074
:1037100020C00BF0120071EC1EF0E552E552E552AC
:10372000E5521200256E21EF16F0020EDBCF04F0F9
:10373000030EDBCF05F0040EDBCF06F0050EDBCF6A
:1037400007F012001DC000F01EC001F01FC002F003
:1037500020C003F012003F0EE5DFBBEC18F01EC0E6
:10376000DEFF1FC0DDFF000EDFCF1EF0010EDBCF3E
:103770001FF03AEC18F032EF1BF004C01DF005C04A
:103780001EF006C01FF007C020F0120001C01EF09E
:1037900002C01FF003C020F012001DC022F01EC0A6
:1037A00023F01FC024F020C025F01200DB0E226E93
:1037B0000F0E236EC90E246E400E1200D950FA0F60
:1037C000E96EFF0E4FEF1BF0B7EC16F073DF3FEF23
:1037D0001BF05ADFDBCF03F01200A4DF24EF1BF055
:0C37E000256ECBDFB7EC16F0A2EF1BF05B
:0437EC00D9CFE6FF4C
:1037F000E1CFD9FF8A848A96FE0EDB508C6E0000E2
:1038000000000000000004D8E552E7CFD9FF120005
:103810008A8872C0E6FF36EC1FF0E5528A9872C0C3
:10382000E6FF36EC1FF0E55212008A808A828A8A0F
:103830008A908A928A948A963F0E8C6E08EF1CF0CA
:10384000D9CFE6FFE1CFD9FF8A948A96400EF36E76
:10385000FE0EDBCFF4FFF350F45C03E28A908A8221
:1038600009D08A808A92FE0EDB50C00FE76EFE0EF2
:10387000E7CFDBFFFE0EDB5040097F0BE76EFE0E4D
:10388000E7CFDBFFDB508C6EC3DFE552E7CFD9FF1C
:103890001200D9CFE6FFE1CFD9FFFE0EDB500708BB
:1038A0000DE38A948A96FE0EDB50B809BF0BE76ED3
:1038B000FE0EE7CFDBFFDB508C6EAADFE552E7CFD1
:1038C000D9FF1200D9CFE6FFE1CFD9FFFE0EDBCF43
:1038D000E6FFB6DFE552FD0EDBCFE6FFDADFE552AD
:1038E000E552E7CFD9FF1200D9CFE6FFE1CFD9FFEC
:1038F000E652FD0EDB5013E18A908A82DF6A410EA8
:10390000DF5C2CE2FE0EDBCFE6FFDFCFE6FFDADF87
:10391000E552E552E66A6ADFE552DF2AF0D7FD0E8E
:10392000DB041CE18A808A92410EDF6EDF50006E5C
:10393000016AD890015004E6800E005C000E015828
:103940000DE2FE0EDBCFE6FFDFCFE6FFBBDFE55289
:10395000E552E66A4BDFE552DF2AE8D7E552E55249
:10396000E7CFD9FF1200D9CFE6FFE1CFD9FFE6526A
:10397000DF6A080EDF5C0FE2E66ADFCFE6FFB4DF46
:10398000E552E552010EE66EDFCFE6FFADDFE55210
:10399000E552DF2AEED7E552E552E7CFD9FF120014
:1039A00009D83DEC0CF03DEC0CF006EC09F006EC0F
:1039B00001F0F7D7D9CFE6FFE1CFD9FF030EE1261B
:1039C000040E946E8B6A966A8D6A96869688968A9D
:1039D0009A809A82978893909392939493969398CF
:1039E000939A956A15EC1CF0B3EC1CF05CEC00F0BB
:1039F000D08E9E909D809F90CD88CD8ACF6ACE6AD2
:103A0000F26AF28CF28ECD80B188B18AB36AB26A62
:103A1000A082A192A2927B887B8A7D6A7C6AB9820D
:103A2000BA92D292050ED56EF294F194B9960F0126
:103A30003D811CEC00F05CEC00F0030EE15C02E266
:103A4000E16AE552E16EE552E7CFD9FF1200DACF25
:103A5000E4FFE652E552E5CFDAFF1100D8CFE4FFEC
:103A6000E0CFE4FFE46EDACFE4FFE2CFDAFFE9CFA4
:103A7000E4FFEACFE4FFF6CFE4FFF7CFE4FFF5CFB2
:103A8000E4FFF3CFE4FFF4CFE4FFFACFE4FF00EE6E
:103A900018F0140EE80403E3EECFE4FFFBD700EECA
:103AA00000F0180EE80403E3EECFE4FFFBD7E65284
:103AB0009EA003D041EC09F0FBD7A1A203D04AECB1
:103AC00009F0F6D7BAA203D070EC09F0F1D7F2A44E
:103AD00002D00DEC16F0E55200EE17F0180EE804D7
:103AE00003E3E5CFEDFFFBD700EE2BF0140EE80467
:103AF00003E3E5CFEDFFFBD7E5CFFAFFE5CFF4FF1A
:103B0000E5CFF3FFE5CFF5FFE5CFF7FFE5CFF6FF14
:103B1000E5CFEAFFE5CFE9FFE5CFDAFFE550E5CFF6
:083B2000E0FFE5CFD8FF100023
:083B2800D9CFE6FFDACFE6FF7A
:103B3000E1CFD9FFE2CFDAFFE652006801687F0EDD
:103B4000026E036AD950FA0FE96EFF0EDA20EA6EB0
:103B5000EE500016EE500116EE500216EE5003160F
:103B60006AD800C0EEFF01C0EEFF02C0EEFF03C046
:103B7000EEFFFD0EDB50800B02E0010E01D0000EC7
:103B8000E66E59D8060EE926000EEA22E552E75005
:103B9000EF6EFC0EDBCF00F0FD0EDBCF01F0D89016
:103BA00000360136FC0E00C0DBFFFD0E01C0DBFF5E
:103BB000DB50E66E40D8040EE926000EEA22E552FC
:103BC000E750EE6EED6AFD0EDB50006E016AFF0EEF
:103BD000001818E1015016E12ED8EECF00F0EECF1C
:103BE00001F0EECF02F0EFCF03F000500110021011
:103BF000031006E0210E0F01146F156B800E0BD021
:103C0000040E09D0FD0EDB5008E115D8EE6AEE6A0D
:103C1000EE6AEE6A010EDF6E06D0020EDF6E0BD882
:103C2000EE52EE52EE8EDF50E552E552E5CFDAFF6E
:103C3000E7CFD9FF1200F80EDBCFE9FFF90EDBCF9B
:043C4000EAFF120085
:0C3C44001E0EF66E000EF76E000EF86EFD
:103C500000010900F550656F0900F550666F03E13A
:103C6000656701D03DD00900F550606F0900F5503F
:103C7000616F0900F550626F09000900F550E96EA7
:103C80000900F550EA6E090009000900F550636F5C
:103C90000900F550646F09000900F6CF67F0F7CF0F
:103CA00068F0F8CF69F060C0F6FF61C0F7FF62C04E
:103CB000F8FF0001635302E1645307E00900F55087
:103CC000EE6E6307F8E26407F9D767C0F6FF68C0D5
:103CD000F7FF69C0F8FF00016507000E665BBFD7FC
:023CE0001200D0
:0E3CE200D9CFE6FFDACFE6FFE1CFD9FFE2CF80
:103CF000DAFFE652E652D950FD0F006EFF0EDA20D1
:103D000000C0DEFFDD6EDECFE9FFDDCFEAFFEF9E14
:103D1000FA0EDBCF00F0FB0EDBCF01F0FC0EDBCFA9
:103D200002F0FD0EDBCF03F000C01CF001C01DF05F
:103D300002C01EF003C01FF0E552E552E552E5CF88
:083D4000DAFFE7CFD9FF120002
:083D4800D9CFE6FFDACFE6FF58
:103D5000E1CFD9FFE2CFDAFF010EE66ED950FA0FBC
:103D6000E96EFF0EDA20EA6EEECFE6FFEECFE6FF59
:103D7000EECFE6FFEFCFE6FF21EC19F0006E050E67
:103D8000E15C02E2E16AE552E16E0050E552E5CF06
:083D9000DAFFE7CFD9FF1200B2
:083D9800D9CFE6FFDACFE6FF08
:103DA000E1CFD9FFE2CFDAFFE66AD950FA0FE96E28
:103DB000FF0EDA20EA6EEECFE6FFEECFE6FFEECFA3
:103DC000E6FFEFCFE6FF21EC19F0006E050EE15C97
:103DD00002E2E16AE552E16E0050E552E5CFDAFF1A
:063DE000E7CFD9FF12003D
:0A3DE600FF0EE3502D6EEF0E01D02A
:103DF000F30EE76EE72EFAEF1EF00C0E2C6EE76A5C
:103E0000E72E00EF1FF02C2EFFEF1EF02D2EF8EF07
:043E10001EF012008E
:0C3E1400160EF36E00EE00F00F0E01D849
:103E20001200EA6002D0EE6AFCD7F350E96012009B
:043E3000EE6AFCD763
:0C3E34001EEE00F02EEE00F0F86A279C55
:103E400022EC1EF003EC00F0D0EC1CF0FBD71200CB
:103E50001B6A080EE76ED8901F361B3624501B5C79
:0C3E600002E31B6E1F2AE72EF7D71200AA
:043E6C00FF0EE35012
:103E7000E84E1200000000D000D000D0E82EFAD7A3
:023E800012002E
:020000040030CA
:010000001DE2
:0100010003FB
:01000200728B
:010003007C80
:010005008B6F
:00000001FF
