:020000040000FA
:0600000016EF02F01200F1
:020006001200E6
:0600080052EF01F01200AE
:02000E000204EA
:0800100000007F0808087F00D2
:0600180059EF01F0120097
:02001E000200DE
:10002000100000000A0F0000080000000E00000091
:08003000120F000002000000A5
:08003800D9CFE6FFE1CFD9FFAB
:100040008A848A96FE0EDB508C6E00000000000051
:10005000000004D8E552E7CFD9FF12008A8812CFFA
:10006000E6FF24EC02F0E5528A9812CFE6FF24EC7A
:1000700002F0E55212008A808A828A8A8A908A92E5
:100080008A948A963F0E8C6E2EEF00F0D9CFE6FF51
:10009000E1CFD9FF8A948A96400EF36EFE0EDBCF35
:1000A000F4FFF350F45C03E28A908A8209D08A80DC
:1000B0008A92FE0EDB50C00FE76EFE0EE7CFDBFF2D
:1000C000FE0EDB5040097F0BE76EFE0EE7CFDBFF35
:1000D000DB508C6EC3DFE552E7CFD9FF1200D9CFDA
:1000E000E6FFE1CFD9FFFE0EDB5007080DE38A944F
:1000F0008A96FE0EDB50B809BF0BE76EFE0EE7CF07
:10010000DBFFDB508C6EAADFE552E7CFD9FF120090
:10011000D9CFE6FFE1CFD9FFFE0EDBCFE6FFB6DF9A
:10012000E552FD0EDBCFE6FFDADFE552E552E7CF21
:10013000D9FF1200D9CFE6FFE1CFD9FFE652FD0E7D
:10014000DB5013E18A908A82DF6A410EDF5C2CE289
:10015000FE0EDBCFE6FFDFCFE6FFDADFE552E5524A
:10016000E66A6ADFE552DF2AF0D7FD0EDB041CE108
:100170008A808A92410EDF6EDF50026E036AD89049
:10018000035004E6800E025C000E03580DE2FE0EE2
:10019000DBCFE6FFDFCFE6FFBBDFE552E552E66AE5
:1001A0004BDFE552DF2AE8D7E552E552E7CFD9FF2A
:1001B0001200D9CFE6FFE1CFD9FFE652DF6A080E81
:1001C000DF5C0FE2E66ADFCFE6FFB4DFE552E5521F
:1001D000010EE66EDFCFE6FFADDFE552E552DF2A26
:0C01E000EED7E552E552E7CFD9FF120040
:0401EC0008D882A409
:1001F00004D0D9EC00F08D80FAD78D90F8D7D9CF04
:10020000E6FFE1CFD9FF020EE126040E946E8B6A61
:10021000966A8D6A93909392939493969398939AF7
:10022000956A3BEC00F0D9EC00F0DF6ADF50026E1B
:10023000036AD890035004E6800E025C000E035857
:100240001DE2010EDB6A080EF36E010EDBCFF4FF38
:10025000F350F45C11E2010EDBCFE6FFDFCFE6FFE7
:1002600088EC00F0E552E552080EE66E1CEC00F05A
:10027000E552010EDB2AE7D7DF2AD8D7040ED56E68
:10028000D66AD76AD08EF194F28AF28CF28ED58E2D
:10029000020EE15C02E2E16AE552E16EE552E7CF6F
:1002A000D9FF1200DACFE4FFE652E552E5CFDAFFDC
:1002B0001100D8CFE4FFE0CFE4FFE46EDACFE4FF33
:1002C000E2CFDAFFE9CFE4FFEACFE4FFF6CFE4FFC5
:1002D000F7CFE4FFF5CFE4FFF3CFE4FFF4CFE4FF83
:1002E000FACFE4FF00EE00F0020EE80403E3EECFE5
:1002F000E4FFFBD700EE02F0020EE80403E3EECFCA
:10030000E4FFFBD7E652F2A402D02AD8FCD7E5528C
:1003100000EE03F0020EE80403E3E5CFEDFFFBD7A8
:1003200000EE01F0020EE80403E3E5CFEDFFFBD79A
:10033000E5CFFAFFE5CFF4FFE5CFF3FFE5CFF5FF1B
:10034000E5CFF7FFE5CFF6FFE5CFEAFFE5CFE9FF21
:10035000E5CFDAFFE550E5CFE0FFE5CFD8FF1000AD
:0E0360008B780B0ED76EDC0ED66EF294120068
:02036E001E0E61
:10037000F66E000EF76E000EF86E0F010900F550D4
:10038000056F0900F550066F03E1056701D03DD008
:100390000900F550006F0900F550016F0900F55094
:1003A000026F09000900F550E96E0900F550EA6E88
:1003B000090009000900F550036F0900F550046FAA
:1003C00009000900F6CF07FFF7CF08FFF8CF09FFB4
:1003D00000CFF6FF01CFF7FF02CFF8FF0F01035365
:1003E00002E1045307E00900F550EE6E0307F8E25E
:1003F0000407F9D707CFF6FF08CFF7FF09CFF8FFBB
:0C0400000F010507000E065BBFD71200BD
:04040C00160EF36E67
:1004100000EE00F00F0E01D81200EA6002D0EE6A82
:0C042000FCD7F350E9601200EE6AFCD734
:04042C001EEE00F0D0
:100430002EEE00F0F86A019CB7EC01F003EC00F03E
:08044000F6EC00F0FBD71200FE
:08044800FF0EE350E84E120024
:0E045000000000D000D000D0E82EFAD7120035
:020000040030CA
:010000001DE2
:0100010003FB
:01000200728B
:010003007C80
:010005008B6F
:00000001FF
