:020000040000FA
:060000002AEF14F01200CB
:020006001200E6
:060008001AEF12F01200D5
:02000E000100EF
:0800100000001827182700006A
:0600180021EF12F01200BE
:02001E000300DD
:10002000862800006E0000000200000010000000A2
:100030000D0F0000080000000E0000006A00000024
:0400400002000000BA
:0C004400D9CFE6FFE1CFD9FF0A0EE1267C
:10005000EDEC13F0F3CF00F0F4CF01F0020E256EBB
:10006000266AF3CF20F0F4CF21F0FAEC0BF01CC09D
:1000700000F01DC001F01C50DF6EEDEC13F0F3CF6B
:1000800000F0F4CF01F0020E256E266AF3CF20F0C7
:10009000F4CF21F0FAEC0BF01CC000F01DC001F011
:1000A000010E1CC0DBFFDF500FE0020EDB6A030E07
:1000B000DB6A340EF36E040EF3CFDBFF430EF36EF8
:1000C000050EF3CFDBFF08D0020EDB6A030EDB6AFE
:1000D000040EDB6A050EDB6AEDEC13F0F3CF00F0E3
:1000E000F4CF01F0320E256E266AF3CF20F0F4CF64
:1000F00021F0FAEC0BF01CC000F01DC001F01CC098
:1001000020F01DC021F0E3EC0AF0060E1FC0DBFF5B
:10011000070E20C0DBFF080E21C0DBFF090E22C046
:10012000DBFF010EDB5025E0006A016A800E026EE3
:10013000BF0E036ED950060FE96EDACFEAFFEECF9D
:100140001FF0EECF20F0EECF21F0EFCF22F000C075
:1001500024F001C025F002C026F003C027F08DEC8A
:100160000BF022C0EDFF21C0EDFF20C0EDFF1FC04E
:10017000EFFF020EDBCF00F0030EDBCF01F0040E29
:10018000DBCF02F0050EDBCF03F0060EDBCF04F071
:10019000070EDBCF05F0080EDBCF06F0090EDBCF34
:1001A00007F004C024F005C025F006C026F007C003
:1001B00027F000C01FF001C020F002C021F003C0F2
:1001C00022F0F7EC0AF0020E1FC0DBFF030E20C086
:1001D000DBFF040E21C0DBFF050E22C0DBFF0F0199
:1001E000006B016B800E026F420E036F046B056B98
:1001F000066B076F020EDBCF08FF030EDBCF09FF94
:10020000040EDBCF0AFF050EDBCF0BFF086B096B7B
:100210000A6B0B6B0C6B0F01180E0F6F270E106F14
:10022000180E116F270E126F010EE66EFEEC05F030
:10023000E552020EE66EFEEC05F0E5520A0EE15CB8
:1002400002E2E16AE552E16EE552E7CFD9FF120022
:10025000D9CFE6FFE1CFD9FF040EE1260F010C5103
:1002600002E160EF05F000CF1FF001CF20F002CFD8
:1002700021F003CF22F020EC0CF0020E21C0DBFFB6
:1002800004CF1FF005CF20F006CF21F007CF22F0DA
:1002900020EC0CF0030E21C0DBFF020EDB0413E1A7
:1002A0000F010F51F36E030EDBCFF4FFF350F45C3C
:1002B0000AE3030EDBCF00F01051D880005403E3B3
:1002C000DE52010E16D0020EDB507E0814E10F0143
:1002D0001151F36E030EDBCFF4FFF350F45C0BE32C
:1002E000030EDBCF00F01251D880005404E3DE523D
:1002F000020EDD6E02D0010EDB6A030EDB50070B2F
:10030000006E010E005204E0E846FE0B0006FCE120
:10031000DF6E030EDB50070B5EE1030EDB50F80BC4
:10032000E842E842E842FF0FE66E020EDBCFE6FF4E
:1003300067EC11F0E552E552E66AFBEC10F0E5528D
:10034000030EDB50F80BE842E842E842E66E020E8C
:10035000DBCFE6FF67EC11F0E552E552E66AFBEC15
:1003600010F0E552010EDB0425E0030EDB50F80B24
:10037000E842E842E842FF0FE66E020EDB04E66E5A
:1003800067EC11F0E552E552E66AFBEC10F0E5523D
:10039000030EDB50F80BE842E842E842E66E020E3C
:1003A000DB04E66E67EC11F0E552E552E66AFBEC21
:1003B00010F0E552010EDB50020801E1ABD0030E54
:1003C000DB50F80BE842E842E842FF0FE66E020E0F
:1003D000DB28E66E85D0030EDB50070B070864E1CF
:1003E000030EDB50F80BE842E842E842E66E020EEC
:1003F000DB04E66E67EC11F0E552E552E66AFBECD1
:1004000010F0E552030EDB50F80BE842E842E842F8
:10041000E66E020EDBCFE6FF67EC11F0E552E55227
:10042000E66AFBEC10F0E552030EDB50F80BE842F5
:10043000E842E842E66E020EDB28E66E67EC11F059
:10044000E552E552E66AFBEC10F0E552030EDB5094
:10045000F80BE842E842E842010FE66E020EDB04C8
:10046000E66E67EC11F0E552E552E66AFBEC10F03F
:10047000E552030EDB50F80BE842E842E842010F78
:10048000E66E020EDBCFE6FF67EC11F0E552E552B7
:10049000E66AFBEC10F0E552030EDB50F80BE84285
:1004A000E842E842010F2AD0030EDB50F80BE84285
:1004B000E842E842E66E020EDB04E66E67EC11F0FD
:1004C000E552E552E66AFBEC10F0E552030EDB5014
:1004D000F80BE842E842E842E66E020EDBCFE6FFA8
:1004E00067EC11F0E552E552E66AFBEC10F0E552DC
:1004F000030EDB50F80BE842E842E842E66E020EDB
:10050000DB28E66E67EC11F0E552E552E66AFBEC9B
:1005100010F0E552030EDB0404E0030EDB503E084E
:1005200019E1246A256A800E266EBF0E276E08CF59
:100530001FF009CF20F00ACF21F00BCF22F08DEC75
:100540000BF01FC008FF20C009FF21C00AFF22C016
:100550000BFF34D0010EDB040EE1030EDB500F0164
:10056000D8800F55E66E010EE66E28EC07F0E552D6
:10057000E552010E11D0010EDB50020811E1030E0D
:10058000DB500F01D8801155E66E020EE66E28ECA6
:1005900007F0E552E552020EE66E30DBE5520ED072
:1005A000020EDB0403E1010EE66E05D0020EDB5005
:1005B0007E0804E1E66A8EDAE55282D2046A056AB0
:1005C000066A400E076E04C0E6FF05C0E6FF06C0DF
:1005D000E6FFE66E4D0E246EF30E256E8E0E266E31
:1005E0003C0E276E08CF1FF009CF20F00ACF21F074
:1005F0000BCF22F08DEC0BF01FC00CF020C00DF0E3
:1006000021C00EF022C00FF01FC0E6FF20C0E6FFA1
:1006100021C0E6FF22C0E6FFBFEC13F0E552E55231
:10062000E552E552E552E7CF07F0E552E7CF06F095
:10063000E552E7CF05F0E552E7CF04F01EC008F021
:100640001FC009F020C00AF021C00BF01EC024F02A
:100650001FC025F020C026F021C027F004C01FF0E5
:1006600005C020F006C021F007C022F08DEC0BF091
:100670001FC000F020C001F021C002F022C003F032
:100680001FC024F020C025F021C026F022C027F092
:1006900000CF1FF001CF20F002CF21F003CF22F0D6
:1006A000F7EC0AF01FC000FF20C001FF21C002FFCD
:1006B00022C003FF046A056A066A400E076E04C082
:1006C000E6FF05C0E6FF06C0E6FFE66E4D0E246EAF
:1006D000F30E256E8E0E266E3C0E276E08CF1FF091
:1006E00009CF20F00ACF21F00BCF22F08DEC0BF0D8
:1006F0001FC00CF020C00DF021C00EF022C00FF082
:100700001FC0E6FF20C0E6FF21C0E6FF22C0E6FFD3
:1007100097EC13F0E552E552E552E552E552E7CF8A
:1007200007F0E552E7CF06F0E552E7CF05F0E552D6
:10073000E7CF04F01EC008F01FC009F020C00AF087
:1007400021C00BF01EC024F01FC025F020C026F0F1
:1007500021C027F004C01FF005C020F006C021F022
:1007600007C022F08DEC0BF01FC000F020C001F09C
:1007700021C002F022C003F01FC024F020C025F0E9
:1007800021C026F022C027F004CF1FF005CF20F0B3
:1007900006CF21F007CF22F0F7EC0AF01FC004FFCC
:1007A00020C005FF21C006FF22C007FF246A256A7A
:1007B000FC0E266E420E276E00CF1FF001CF20F0F8
:1007C00002CF21F003CF22F047EC0CF0010A07E141
:1007D0000F01006B016BFC0E026F420E036F246A67
:1007E000256A780E266E420E276E04CF1FF005CFC5
:1007F00020F006CF21F007CF22F047EC0CF0010AE1
:1008000007E10F01046B056B780E066F420E076F50
:10081000246A256A800E266E3F0E276E00CF1FF0D9
:1008200001CF20F002CF21F003CF22F050EC0CF0EA
:10083000010A07E10F01006B016B800E026F3F0E92
:10084000036F246A256A800E266E3F0E276E04CF42
:100850001FF005CF20F006CF21F007CF22F050EC9B
:100860000CF0010A07E10F01046B056B800E066FA7
:100870003F0E076F00CF1FF001CF20F002CF21F015
:1008800003CF22F020EC0CF0020E21C0DBFF04CFDE
:100890001FF005CF20F006CF21F007CF22F020EC8B
:1008A0000CF0030E21C0DBFFDB50070B006E010EC6
:1008B000005204E0E846FE0B0006FCE1DF6E030E8A
:1008C000DB50070B3DE1030EDB50F80BE842E8423A
:1008D000E842FF0FE66E020EDB04E66E67EC11F0F5
:1008E000E552E552800EE66EFBEC10F0E552030E89
:1008F000DB50F80BE842E842E842FF0FE66E020EDA
:10090000DBCFE6FF67EC11F0E552E552800EE66EB4
:10091000FBEC10F0E552030EDB50F80BE842E84226
:10092000E842FF0FE66E020EDB28E66E67EC11F080
:10093000E552E552800EE66EFBEC10F0E55281D0F8
:10094000030EDB50070B070801E077D0DF407F0B79
:10095000DF10DF6E030EDB50F80BE842E842E8429E
:10096000E66E020EDB04E66E67EC11F0E552E5522E
:10097000DFCFE6FFFBEC10F0E552030EDB50F80B87
:10098000E842E842E842E66E020EDBCFE6FF67ECA3
:1009900011F0E552E552DFCFE6FFFBEC10F0E55237
:1009A000030EDB50F80BE842E842E842E66E020E26
:1009B000DB28E66E67EC11F0E552E552DFCFE6FF8B
:1009C000FBEC10F0E552030EDB50F80BE842E84276
:1009D000E842010FE66E020EDB04E66E67EC11F0F2
:1009E000E552E552010EE66EFBEC10F0E552030E07
:1009F000DB50F80BE842E842E842010FE66E020ED7
:100A0000DBCFE6FF67EC11F0E552E552010EE66E32
:100A1000FBEC10F0E552030EDB50F80BE842E84225
:100A2000E842010FE66E020EDB28E66E67EC11F07D
:100A3000E552E552010EE66E3ED0DF407F0BDF103F
:100A4000DF6EDF50E824DF10DF6E030EDB50F80BA3
:100A5000E842E842E842E66E020EDB04E66E67EC2E
:100A600011F0E552E552DFCFE6FFFBEC10F0E55266
:100A7000030EDB50F80BE842E842E842E66E020E55
:100A8000DBCFE6FF67EC11F0E552E552DFCFE6FF82
:100A9000FBEC10F0E552030EDB50F80BE842E842A5
:100AA000E842E66E020EDB28E66E67EC11F0E552D6
:100AB000E552DFCFE6FFFBEC10F0E5520F010C6BC7
:100AC000040EE15C02E2E16AE552E16EE552E7CF35
:100AD000D9FF1200D9CFE6FFE1CFD9FFFE0EDB50E0
:100AE00003E10F010D2B05D0FE0EDB5002E00F01DC
:100AF0000E2BA7DA22EC00F0E552E7CFD9FF120067
:100B00000F01135111E18450100B05E08450200BAC
:100B100002E1010E07D08450200B06E08450100B38
:100B200003E1020E136FB180145113E18850010BE1
:100B300007E08850020B04E1010E146F7B80120065
:100B40008850020B06E08850010B03E1020E146F7F
:100B50007B8012000F01010E0C6FC00ECF6ECE6AAB
:100B60009E901200B1900F0113050BE13E0E105D37
:100B700015E2010EE66ED8D9E5520F010F2B102BAE
:100B80000DD0020E135D0AE10F51000807E2010EBD
:100B9000E66ECAD9E5520F010F071007D00EB36EEB
:100BA000B26A136B010EE66E29D8E552A1921200CB
:100BB0007B900F0114050BE13E0E125D15E2020E53
:100BC000E66EB2D9E5520F01112B122B0DD0020E99
:100BD000145D0AE11151000807E2020EE66EA4D985
:100BE000E5520F0111071207D00E7D6E7C6A146B5F
:100BF000020EE66E03D8E552BA921200D9CFE6FF94
:100C0000E1CFD9FF020EE126FE0EDB0401E082D027
:100C10000F010F51F80BE842E842E842E76E010E7F
:100C2000E7CFDBFF0F51070B006EFF0E005204E011
:100C3000E846FE0B0006FCE1DF6E010EDBCFE6FFAF
:100C4000E66A67EC11F0E552E552DFCFE6FFFBEC18
:100C500010F0E552010EDBCFE6FFE66E67EC11F017
:100C6000E552E552DFCFE6FFFBEC10F0E5520F0155
:100C70001051F80BE842E842E842E76E010EE7CF78
:100C8000DBFF0068070E016E1051070B015C00C00E
:100C9000E7FF070B04E0E742E79EE806FCE1E750C8
:100CA000DF6E010EDBCFE6FFE66A67EC11F0E5527E
:100CB000E552DFCFE6FFFBEC10F0E552010EDBCF93
:100CC000E6FFE66E67EC11F0E552E552DFCFE6FF96
:100CD000FBEC10F0E552010EDBCFE6FF0F010F51E8
:100CE000F80BE842E842E842E552E75C020801E01E
:100CF000A5D0010EDB06DBCFE6FFE66A67EC11F05C
:100D0000E552E552E668FBEC10F0E552010EDBCF50
:100D1000E6FF8BD0FE0EDB50020801E08FD00F0102
:100D20001151F80BE842E842E842E76E010EE7CFC6
:100D3000DBFF1151070B006EFF0E005204E0E84686
:100D4000FE0B0006FCE1DF6E010EDBCFE6FF7F0E3F
:100D5000E66E67EC11F0E552E552DFCFE6FFFBEC03
:100D600010F0E552010EDBCFE6FF7E0EE66E67EC7B
:100D700011F0E552E552DFCFE6FFFBEC10F0E55253
:100D80000F011251F80BE842E842E842E76E010E0B
:100D9000E7CFDBFF0068070E016E1251070B015C05
:100DA00000C0E7FF070B04E0E742E79EE806FCE12E
:100DB000E750DF6E010EDBCFE6FF7F0EE66E67ECDD
:100DC00011F0E552E552DFCFE6FFFBEC10F0E55203
:100DD000010EDBCFE6FF7E0EE66E67EC11F0E5520A
:100DE000E552DFCFE6FFFBEC10F0E552010EDBCF62
:100DF000E6FF0F011151F80BE842E842E842E552E4
:100E0000E75C02081BE1010EDB06DBCFE6FF7F0E8D
:100E1000E66E67EC11F0E552E552E668FBEC10F087
:100E2000E552010EDBCFE6FF7E0EE66E67EC11F0B9
:100E3000E552E552E668FBEC10F0E552020EE15C8B
:100E400002E2E16AE552E16EE552E7CFD9FF120016
:100E5000D9CFE6FFE1CFD9FFE652080EF36EFD0EC3
:100E6000DBCFF4FFF350F45C09E2FD0EDBCFE6FFCD
:100E7000070EE552D880E754F60D08D0FD0EDB5082
:100E8000070814E2FD0EDB50F80F0A0DF350DF6E79
:100E9000DFCF00F000C021F0D2EC0AF01FC008FF45
:100EA00020C009FF21C00AFF22C00BFFFE0EDB504D
:100EB000020835E1246A256A266A276A08CF1FF0EE
:100EC00009CF20F00ACF21F00BCF22F050EC0CF02C
:100ED000010A06E1006A016A340E026EC30E05D0F3
:100EE000006A016A340E026E430E036E08CF24F0CE
:100EF00009CF25F00ACF26F00BCF27F000C01FF056
:100F000001C020F002C021F0226EF6EC0AF01FC0F2
:100F100008FF20C009FF21C00AFF22C00BFFE552D5
:100F2000E552E7CFD9FF1200D9CFE6FFE1CFD9FFD5
:100F3000FE0EDB043AE10F010F51F80BE842E842E4
:100F4000E842E66EE66A67EC11F0E552E552E66AC1
:100F5000FBEC10F0E5520F011051F80BE842E842AB
:100F6000E842E66EE66A67EC11F0E552E552E66AA1
:100F7000FBEC10F0E5520F010F51F80BE842E8428C
:100F8000E842E66E010EE66E67EC11F0E552E552BE
:100F9000E66AFBEC10F0E5520F011051F80BE84245
:100FA000E842E842E66E010E3FD0FE0EDB5002083A
:100FB00044E10F011151F80BE842E842E842E66EC5
:100FC0007E0EE66E67EC11F0E552E552E66AFBEC48
:100FD00010F0E5520F011251F80BE842E842E842E6
:100FE000E66E7E0EE66E67EC11F0E552E552E66ABB
:100FF000FBEC10F0E5520F011151F80BE842E8420A
:10100000E842E66E7F0EE66E67EC11F0E552E552BF
:10101000E66AFBEC10F0E5520F011251F80BE842C2
:10102000E842E842E66E7F0EE66E67EC11F0E552AC
:10103000E552E66AFBEC10F0E552E552E7CFD9FF46
:101040001200D9CFE6FFE1CFD9FFE652DF6A080EE2
:10105000DF5C31E2DFCFE6FFE66A67EC11F0E552D4
:10106000E552E66AFBEC10F0E552DFCFE6FF010E39
:10107000E66E67EC11F0E552E552E66AFBEC10F023
:10108000E552DFCFE6FF7F0EE66E67EC11F0E5522A
:10109000E552E66AFBEC10F0E552DFCFE6FF7E0E8C
:1010A000E66E67EC11F0E552E552E66AFBEC10F0F3
:1010B000E552DF2ACCD7E552E552E7CFD9FF12003F
:1010C000D9CFE6FFE1CFD9FFE652030EE66E0A0E56
:1010D000E66E67EC11F0E552E552E668FBEC10F0C5
:1010E000E552040EE66E0A0EE66E67EC11F0E5526C
:1010F000E552E668FBEC10F0E552030EE66E0B0ECF
:10110000E66E67EC11F0E552E552E668FBEC10F094
:10111000E552040EE66E0B0EE66E67EC11F0E5523A
:10112000E552E668FBEC10F0E552030EE66E0C0E9D
:10113000E66E67EC11F0E552E552830EE66EFBECCD
:1011400010F0E552040EE66E0C0EE66E67EC11F040
:10115000E552E552C10EE66EFBEC10F0E552030ECF
:10116000E66E0D0EE66E67EC11F0E552E552830E69
:10117000E66EFBEC10F0E552040EE66E0D0EE66E28
:1011800067EC11F0E552E552C10EE66EFBEC10F093
:10119000E552030EE66E0E0EE66E67EC11F0E552B8
:1011A000E552830EE66EFBEC10F0E552040EE66E9F
:1011B0000E0EE66E67EC11F0E552E552C10EE66EDA
:1011C000FBEC10F0E552030EE66E0F0EE66E67ECD8
:1011D00011F0E552E552860EE66EFBEC10F0E5529A
:1011E000040EE66E0F0EE66E67EC11F0E552E55266
:1011F000610EE66EFBEC10F0E552030EE66E100E8B
:10120000E66E67EC11F0E552E552860EE66EFBECF9
:1012100010F0E552040EE66E100EE66E67EC11F06B
:10122000E552E552610EE66EFBEC10F0E552030E5E
:10123000E66E110EE66E67EC11F0E552E552CC0E4B
:10124000E66EFBEC10F0E552040EE66E110EE66E53
:1012500067EC11F0E552E552330EE66EFBEC10F050
:10126000E552030EE66E120EE66E67EC11F0E552E3
:10127000E5527C0EE66EFBEC10F0E552040EE66ED5
:10128000120EE66E67EC11F0E552E5523E0EE66E88
:10129000FBEC10F0E552030EE66E130EE66E67EC03
:1012A00011F0E552E552300EE66EFBEC10F0E5521F
:1012B000040EE66E130EE66E67EC11F0E552E55291
:1012C0000C0EE66EFBEC10F0E552030EE66E170E08
:1012D000E66E67EC11F0E552E552E668FBEC10F0C3
:1012E000E552040EE66E170EE66E67EC11F0E5525D
:1012F000E552E668FBEC10F0E552030EE66E180EC0
:10130000E66E67EC11F0E552E552E668FBEC10F092
:10131000E552040EE66E180EE66E67EC11F0E5522B
:10132000E552E668FBEC10F0E552190EDF6E210E77
:10133000DF5C1CE2030EE66EDFCFE6FF67EC11F028
:10134000E552E552830EE66EFBEC10F0E552040E1A
:10135000E66EDFCFE6FF67EC11F0E552E552C10E15
:10136000E66EFBEC10F0E552DF2AE1D7240EDF6ECB
:10137000030EE66EDFCFE6FF67EC11F0E552E552B3
:10138000FC0EE66EFBEC10F0E552040EE66EDFCFCD
:10139000E6FF67EC11F0E552E5523F0EE66EFBEC1E
:1013A00010F0E552030EE66EDF28E66E67EC11F0F2
:1013B000E552E552FE0EE66EFBEC10F0E552040E2F
:1013C000E66EDF28E66E67EC11F0E552E5527F0E1F
:1013D000E66EFBEC10F0E552030EE66E020EDF2423
:1013E000E66E67EC11F0E552E552070EE66EFBEC97
:1013F00010F0E552040EE66E020EDF24E66E67EC96
:1014000011F0E552E552E00EE66EFBEC10F0E5520D
:10141000030EE66EDF24E66E67EC11F0E552E5524E
:10142000030EE66EFBEC10F0E552040EE66E030EC2
:10143000DF24E66E67EC11F0E552E552C00EE66E71
:10144000FBEC10F0E552030EE66E040EDF24E66EB0
:1014500067EC11F0E552E552030EE66EFBEC10F07E
:10146000E552040EE66EDF24E66E67EC11F0E552FD
:10147000E552C00EE66EFBEC10F0E552030EE66E90
:10148000050EDF24E66E67EC11F0E552E552830E9F
:10149000E66EFBEC10F0E552040EE66E050EDF245E
:1014A000E66E67EC11F0E552E552C10EE66EFBEC1C
:1014B00010F0E552030EE66E060EDF24E66E67ECD2
:1014C00011F0E552E552830EE66EFBEC10F0E552AA
:1014D000040EE66E050EDF24E66E67EC11F0E552B1
:1014E000E552C10EE66EFBEC10F0E552030EE66E1F
:1014F000070EDF24E66E67EC11F0E552E552830E2D
:10150000E66EFBEC10F0E552040EE66E070EDF24EB
:10151000E66E67EC11F0E552E5527F0EE66EFBECED
:1015200010F0E552030EE66E080EDF24E66E67EC5F
:1015300011F0E552E552870EE66EFBEC10F0E55235
:10154000040EE66E080EDF24E66E67EC11F0E5523D
:10155000E5523F0EE66EFBEC10F0E552030EE66E30
:10156000090EDF24E66E67EC11F0E552E552870EB6
:10157000E66EFBEC10F0E552040EE66E090EDF2479
:10158000E66E67EC11F0E552E552010EE66EFBECFB
:1015900010F0E552E552E552E7CFD9FF12001200F4
:1015A000199E05D0199E21AE02D0216C198E21C042
:1015B0001BF01A6A2B6A2A6A860E1C6E1D6ACAEF15
:1015C0000CF0199E08D0199E21AE05D0206C211E6A
:1015D000E86A2122198E21C01BF020C01AF02B6A64
:1015E0002A6A8E0E1C6E1D6ACAEF0CF0277E196ADD
:1015F00006EC0DF01EEC0DF019B6AEEF0CF019A2D2
:101600000AD019AA03D019BEAEEF0CF019A4BAEF94
:101610000CF0B7EF0CF019AA05D019ACBAEF0CF02A
:10162000B7EF0CF019A00AD019A808D019BE04D041
:1016300019A402D0C3EF0CF0C7EF0CF02A6A1D6AA0
:101640002750225C296E10E31FC02BF020C01AF037
:1016500021C01BF022C028F024C01FF025C020F0BC
:1016600026C021F0193A09D024C02BF025C01AF069
:1016700026C01BF027C028F0296C199E19BC198EB2
:1016800028C01CF019B0F6EF0CF01A0E2960F6EF26
:101690000CF01C6A226A19A408D01F6C201E211E9F
:1016A000221EE86A20222122222219AC08D02B6CAB
:1016B0001A1E1B1E1C1EE86A1A221B221C221E6AEE
:1016C000295207E02234213220321F321E32292EC5
:1016D000F9D71F502B2620501A2221501B222250AE
:1016E0001C221EC02AF0199E1CAE0BD02A6C2B1E89
:1016F0001A1E1B1E1C1EE86A2B221A221B221C22E9
:10170000198E1CA006D0D8801B321A322B322A32F6
:10171000282A28C01CF0CAEF0CF0196A06EC0DF05C
:101720001EEC0DF019B6AEEF0CF019A205D019B8E9
:10173000AEEF0CF0B5EF0CF019AA05D019B0AEEF72
:101740000CF0B5EF0CF019B002D019A802D0C1EF1F
:101750000CF01D6A275022241C6EE86A1D227E0EA2
:101760001C5EE86A1D5A2A6A2B6A1A6A1B6A26508E
:101770002102F4CF1BF0F3CF1AF025502102F350D1
:101780002B26F4501A22000E1B2226502002F35062
:101790002B26F4501A22000E1B2224502102F35053
:1017A0002A26F4502B22000E1A221B22255020023A
:1017B000F3502A26F4502B22000E1A221B22265008
:1017C0001F02F3502A26F4502B22000E1A221B224D
:1017D00024502002F4502A26000E2B221A221B220B
:1017E00025501F02F4502A26000E2B221A221B22FB
:1017F000CAEF0CF0186A26AE03EF0CF0256C261E1B
:10180000E86A2622181E21AE0BEF0CF0206C211E78
:10181000E86A2122181E04EC14F021BE1BEF0CF024
:1018200018AE000C206C211EE86A21221C6C1D1EC3
:10183000E86A1D22000C18BE12EF0CF01988FF0C8C
:10184000196A06EC0DF019B62AEF0CF019A20AD0AD
:1018500019B403D07F0E216E19D0800E216E16D0E0
:10186000216A14D019B0FCD7870E2260F1D77E0E02
:101870002264F6D7860E225C04E0D8902132222A18
:10188000F9D719A403D0216C21AEEAD7120059EC84
:101890000CF019B6000C19B0000C19B4000C010CB6
:1018A00059EC0CF019B6000C19B0000C19A4000C7E
:1018B000010C196A06EC0DF01EEC0DF019B61200C1
:1018C00019AE08D019A004D019A802D019801200AE
:1018D000199012002750225C0BE12650215C08E190
:1018E0002550205C05E124501F5C02E119801200A4
:1018F000D8A002D0198E10D0225027C022F0276E17
:10190000215026C021F0266E205025C020F0256EE3
:101910001F5024C01FF0246E2750225C10E0FF0FE0
:1019200009E0199019B403D019AE1984120019AE48
:1019300019941200272AD8902632253224322450B6
:101940001F5E2550205A2650215A21BEEAD7D89032
:101950001F3620362136222EF8D7C8D77F0E226EAA
:10196000FF0E216E206E1F6E12007F0E19BEFF0E3D
:10197000226E02D07F0E226E800E216E206A1F6AB8
:10198000F3D719AE04D0800E226E216AF7D7226AEF
:10199000216AF4D71B501A102B102A10F8E01DBE34
:1019A000F0D71BBE0CD01C501D10EBE0D8902A368F
:1019B0002B361A361B361C06D8A01D06F2D71D5032
:1019C000D4E11C28D2E02AAE11D07F0E2A1402E105
:1019D0002BA00CD02B2AE86A1A221B2207E3D880FE
:1019E0001B321A322B321C2A1C28BFE01C50C9E0C3
:1019F0002BC01FF01AC020F01B34216E1C30226E49
:101A00002132229E19BE228EB4EF0CF021362236EE
:101A100002E31984197E06E11980226A216A206A8C
:101A20001F6A1200222803E0D88021321200D890C9
:101A3000213202E119821200198612002636273659
:101A400002E3198C197E06E11988276A266A256A3D
:101A5000246A1200272803E0D88026321200D8908A
:101A60002632EAE1198A1200199E0CD0199E21AE85
:101A700009D01E6C1F1E201E211EE86A1F22202274
:101A80002122198E21C01BF020C01AF01FC02BF09C
:101A90001EC02AF09E0E1C6E1D6ACAEF0CF0196A59
:101AA00006EC0DF01EEC0DF019B6AEEF0CF019A21D
:101AB00005D019BAAEEF0CF0B5EF0CF019BAC1EFC2
:101AC0000CF019A005D019B8AEEF0CF0C1EF0CF076
:101AD00019B8B5EF0CF01D6A7F0E22241C6EE86A5F
:101AE0001D2227501C5EE86A1D5A1A0E286E226AB3
:101AF0002A6A2B6A1A6A1B6A24501F5E2550205AD4
:101B00002650215A000E225A09E724501F2625503C
:101B1000202226502122000E222201D02A8AD8908B
:101B20001F36203621362236D8902A362B361A36E2
:101B30001B36282EE1D7215020101F10D8A42A8A46
:101B4000CAEF0CF0196A06EC0DF019B6ACEF0DF007
:101B500019A20ED019B405D07F0E216EFF0E206E93
:101B60001FD0800E216E206A1BD0216A206A18D0F7
:101B700019B0FBD78F0E2260EDD77E0E2264F5D709
:101B80008E0E225C05E0D89021322032222AF8D72E
:101B900019A406D0206C211EE86A212221AEE5D7C7
:101BA0001200196A06EC0DF019B6DBEF0DF019A260
:101BB0000FD019B407D07F0E216EFF0E206E1F6E5E
:101BC0001E6E25D0800E216E01D0216A000EF6D740
:101BD00019B0FBD71E6A9F0E2260EBD77E0E2264DF
:101BE000F4D79E0E225C07E0D890213220321F32BB
:101BF0001E32222AF6D719A40AD01E6C1F1E201EE0
:101C0000211EE86A1F222022212221AEDED71200E7
:101C100020C02AF020502502F4CF1FF0F3CF1EF091
:101C200021502602F4CF21F0F3CF20F02502F3500B
:101C30001F26F4502022E86A21222A502602F3505F
:0C1C40001F26F4502022E86A2122000C2C
:041C4C00D9CFE6FF07
:101C5000DACFE6FFE1CFD9FFE2CFDAFF220EE124AF
:101C600002E3E168E652E16ED950130FE66E000E12
:101C7000DA20E66EA8DA87EC12F0006E060EE15C60
:101C800002E2E16AE552E16E0050E76E0E0EE7CF28
:101C9000DBFFDB50840B0CE0210E00016C6F6D6BE1
:101CA0000F0EDB68100EDB68110EDB687F0E6ED046
:101CB0008ADA36DA020E1EC0DBFF030E1FC0DBFF1E
:101CC000040E20C0DBFF050E21C0DBFF87DA246A8B
:101CD000100E256E490E266E460E14DA50EC0CF0EE
:101CE000010A32E07BDA67DA0DDA4FEC0DF0BFD98A
:101CF000060EDBCF1FF0070EDBCF20F0080EDBCF88
:101D000021F0090EDBCF22F0D1EC0DF036EC0DF016
:101D1000AED964DA060EDBCF08F0070EDBCF09F090
:101D2000080EDBCF0AF0090EDBCF0BF044DA276E8A
:101D300008C01FF009C020F00AC021F00BC022F03B
:101D400048DAF6EC0AF0C4D9F90EDB5012E00E0EB8
:101D5000DB040BE1FA0EDBCF00F0FB0EDBCF01F072
:101D6000FC0EDBCF02F0FD0E52D167D9266AF8D9FE
:101D700047D00E0EDB0419E10F0EDB6A100EDB6A92
:101D8000800EF36E110EF3CFDBFF3F0EF36E120EDB
:101D9000F3CFDBFF0F0EDBCF00F0100EDBCF01F037
:101DA000110EDBCF02F0120E32D1190EDB6A45D9CB
:101DB000800E266ED5D9006A016A026A3F0E036E54
:101DC000D950060FE96E000EDA20EA6EEECF1FF052
:101DD000EECF20F0EECF21F0EFCF22F000C024F0C4
:101DE00001C025F002C026F003C027F0F6EC0AF08F
:101DF00022C0EDFF21C0EDFF20C0EDFF1FC0EFFFAF
:101E0000DF50010B0AE0190EDB5002E0000E01D09A
:101E1000010EE76E190EE7CFDBFF8CD9060EDBCF84
:101E20000CF0070EDBCF0DF0080EDBCF0EF0090E25
:101E3000DBCF0FF0246A256A490E266E400E276E0E
:101E40000CC01FF00DC020F00EC021F00FC022F01A
:101E50008DEC0BF05CD9A6D995D9F6EC0AF077D9C0
:101E6000060EDBCF14F0070EDBCF15F0080EDBCF2C
:101E700016F0090EDBCF17F0220E246EAA0E256E87
:101E80007D0E266E3A0E276E14C01FF015C020F08E
:101E900016C021F017C022F08DEC0BF01FC010F01F
:101EA00020C011F021C012F022C013F0EDD8F6ECE2
:101EB0000AF00A0E1FC0DBFF0B0E20C0DBFF0C0E6A
:101EC00021C0DBFF0D0E22C0DBFFD9500A0FE96EE7
:101ED000000EEAD825D91EC000F01FC001F020C0B6
:101EE00002F021C003F0246A256A800E266E390EA6
:101EF000276E1EC01FF04FD950EC0CF0010A13E101
:101F0000D9500A0FE96E000EDA20EA6E020EEECF0B
:101F1000DBFF030EEECFDBFF040EEECFDBFF050E83
:101F2000EECFDBFF68D0E1D80A0EDBCF24F00B0E3A
:101F3000DBCF25F00C0EDBCF26F00D0EDBCF27F02C
:101F40008DEC0BF01A0E1FC0DBFF1B0E20C0DBFF59
:101F50001C0E21C0DBFF1D0E22C0DBFF5B0E1F6EBF
:101F60009C0E206E2E0E216E360E226E72D8CFD8A9
:101F7000220E246EB20E256E4F0E266EB90E32D989
:101F80009ED83E0E246E870E256E080E266E3C0EE1
:101F900029D9DDD8A40E246EAA0E256E2A0E266E2F
:101FA000BE0E20D91E0E1FC0DBFF1F0E20C0DBFFA0
:101FB000200E21C0DBFF210E22C0DBFF0A0EDBCF8B
:101FC00000F00B0EDBCF01F00C0EDBCF02F00D0E9C
:101FD000DBCF03F08AD81E0EDBCF24F01F0EDBCF41
:101FE00025F0200EDBCF26F0210EDBCF27F0F1D835
:101FF000F7EC0AF06DD8190EDB5008E09BD8246A84
:10200000256A800E266EBF0EF0D803D042D8DBCFF3
:1020100003F000C01EF001C01FF002C020F003C09A
:1020200021F0220EE15C02E2E16AE552E16EE55246
:10203000E5CFDAFFE7CFD9FF12007CD8830E246EFC
:10204000F90E256EA20E266E3E0ECFD8246A256AA2
:1020500012001A0EDBCF24F01B0EDBCF25F01C0E76
:10206000DBCF26F01D0EDBCF27F08DEF0BF0060E39
:102070001FC0DBFF070E20C0DBFF080E21C0DBFF07
:10208000090E22C0DBFF12008DD800C01FF0CBEF7D
:1020900010F0020EDBCF00F0030EDBCF01F0040ED8
:1020A000DBCF02F0050E1200DA20EA6EEECFE6FF7B
:1020B000EECFE6FFEECFE6FFEFCFE6FF12001FC048
:1020C00004F020C005F021C006F022C007F0120085
:1020D000020E1FC0DBFF030E20C0DBFF040E21C079
:1020E000DBFF050E22C0DBFF12000A0EDBCF1FF064
:1020F0000B0EDBCF20F00C0EDBCF21F00D0EDBCF73
:1021000022F01200276E00C01FF0CBEF10F01FC0AE
:1021100008F020C009F021C00AF022C00BF0120024
:1021200064EC13F0E552E552E552E5521200276ED9
:10213000F7EF0AF0020EDBCF04F0030EDBCF05F061
:10214000040EDBCF06F0050EDBCF07F012001FC038
:1021500000F020C001F021C002F022C003F0120004
:102160003F0EE5DFA2EC0DF020C0DEFF21C0DDFF59
:10217000000EDFCF20F0010EDBCF21F0E3EC0AF000
:1021800037EF10F004C01FF005C020F006C021F0AA
:1021900007C022F0120001C020F002C021F003C0ED
:1021A00022F012001FC024F020C025F021C026F02C
:1021B00022C027F01200DB0E246E0F0E256EC90E12
:1021C000266E400E1200D950FA0FE96EFF0E54EF42
:1021D00010F08DEC0BF073DF44EF10F05ADFDBCF23
:1021E00003F01200A4DF29EF10F0276ECBDF8DEC97
:0621F0000BF0A7EF10F058
:0A21F600D9CFE6FFE1CFD9FF8A84BC
:102200008A96FE0EDB508C6E00000000000000007D
:1022100004D8E552E7CFD9FF12008A886EC0E6FFE6
:1022200038EC14F0E5528A986EC0E6FF38EC14F0F2
:10223000E55212008A808A828A8A8A908A928A94D7
:102240008A963F0E8C6E0DEF11F0D9CFE6FFE1CFED
:10225000D9FF8A948A96400EF36EFE0EDBCFF4FF10
:10226000F350F45C03E28A908A8209D08A808A92D1
:10227000FE0EDB50C00FE76EFE0EE7CFDBFFFE0E5B
:10228000DB5040097F0BE76EFE0EE7CFDBFFDB5034
:102290008C6EC3DFE552E7CFD9FF1200D9CFE6FF3E
:1022A000E1CFD9FFFE0EDB5007080DE38A948A9632
:1022B000FE0EDB50B809BF0BE76EFE0EE7CFDBFF6B
:1022C000DB508C6EAADFE552E7CFD9FF1200D9CFE1
:1022D000E6FFE1CFD9FFFE0EDBCFE6FFB6DFE5522A
:1022E000FD0EDBCFE6FFDADFE552E552E7CFD9FF9F
:1022F0001200D9CFE6FFE1CFD9FFE652FD0EDB5049
:1023000013E18A908A82DF6A410EDF5C2CE2FE0EC6
:10231000DBCFE6FFDFCFE6FFDADFE552E552E66A24
:102320006ADFE552DF2AF0D7FD0EDB041CE18A806C
:102330008A92410EDF6EDF50006E016AD890015024
:1023400004E6800E005C000E01580DE2FE0EDBCFAD
:10235000E6FFDFCFE6FFBBDFE552E552E66A4BDF83
:10236000E552DF2AE8D7E552E552E7CFD9FF120060
:10237000D9CFE6FFE1CFD9FFE652DF6A080EDF5C76
:102380000FE2E66ADFCFE6FFB4DFE552E552010E69
:10239000E66EDFCFE6FFADDFE552E552DF2AEED78E
:0A23A000E552E552E7CFD9FF120025
:0623AA0005D880EC05F0EF
:1023B00028EC01F0FBD7040E946E8B6A966A8D6A46
:1023C0009688968A9A809A8297889390939293940B
:1023D00093969398939A956A1AEC11F0B8EC11F0D1
:1023E00022EC00F0D08E9E909D809F90CD88CD8A6B
:1023F000CF6ACE6AF26AF28CF28ECD80B188B18A51
:10240000B36AB26AA082A192A2927B887B8A7D6A1B
:102410007C6AB982BA92D292050ED56EF28AF29493
:10242000F1940B0ED76EDC0ED66EB9960F013D817E
:1024300060EF08F0DACFE4FFE652E552E5CFDAFFCD
:102440001100D8CFE4FFE0CFE4FFE46EDACFE4FF81
:10245000E2CFDAFFE9CFE4FFEACFE4FFF6CFE4FF13
:10246000F7CFE4FFF5CFE4FFF3CFE4FFF4CFE4FFD1
:10247000FACFE4FF00EE18F0140EE80403E3EECF09
:10248000E4FFFBD700EE00F0180EE80403E3EECF04
:10249000E4FFFBD7E6529EA003D0AAEC05F0FBD7E1
:1024A000A1A203D0B2EC05F0F6D7BAA203D0D8ECC3
:1024B00005F0F1D7F2A402D0CFEC0AF0E55200EE1D
:1024C00017F0180EE80403E3E5CFEDFFFBD700EEAD
:1024D0002BF0140EE80403E3E5CFEDFFFBD7E5CFC7
:1024E000FAFFE5CFF4FFE5CFF3FFE5CFF5FFE5CF4A
:1024F000F7FFE5CFF6FFE5CFEAFFE5CFE9FFE5CF50
:0E250000DAFFE550E5CFE0FFE5CFD8FF100091
:02250E00D9CF23
:10251000E6FFDACFE6FFE1CFD9FFE2CFDAFFE652FE
:10252000006801687F0E026E036AD950FA0FE96EE7
:10253000FF0EDA20EA6EEE500016EE500116EE5055
:102540000216EE5003166AD800C0EEFF01C0EEFF7F
:1025500002C0EEFF03C0EEFFFD0EDB50800B02E079
:10256000010E01D0000EE66E59D8060EE926000EC7
:10257000EA22E552E750EF6EFC0EDBCF00F0FD0ED5
:10258000DBCF01F0D89000360136FC0E00C0DBFF37
:10259000FD0E01C0DBFFDB50E66E40D8040EE926DD
:1025A000000EEA22E552E750EE6EED6AFD0EDB50BA
:1025B000006E016AFF0E001818E1015016E12ED8D6
:1025C000EECF00F0EECF01F0EECF02F0EFCF03F050
:1025D000005001100210031006E0210E00016C6F84
:1025E0006D6B800E0BD0040E09D0FD0EDB5008E1A0
:1025F00015D8EE6AEE6AEE6AEE6A010EDF6E06D05C
:10260000020EDF6E0BD8EE52EE52EE8EDF50E55228
:10261000E552E5CFDAFFE7CFD9FF1200F80EDBCFA6
:0A262000E9FFF90EDBCFEAFF12001C
:06262A001E0EF66E000E0C
:10263000F76E000EF86E00010900F550656F090095
:10264000F550666F03E1656701D03DD00900F55094
:10265000606F0900F550616F0900F550626F090065
:102660000900F550E96E0900F550EA6E090009000D
:102670000900F550636F0900F550646F0900090007
:10268000F6CF67F0F7CF68F0F8CF69F060C0F6FFDB
:1026900061C0F7FF62C0F8FF0001635302E16453B9
:1026A00007E00900F550EE6E6307F8E26407F9D71A
:1026B00067C0F6FF68C0F7FF69C0F8FF0001650753
:0826C000000E665BBFD712009B
:0826C800D9CFE6FFDACFE6FFEF
:1026D000E1CFD9FFE2CFDAFFE652E652D950FD0F43
:1026E000006EFF0EDA2000C0DEFFDD6EDECFE9FFF8
:1026F000DDCFEAFFEF9EFA0EDBCF00F0FB0EDBCF63
:1027000001F0FC0EDBCF02F0FD0EDBCF03F000C0CA
:102710001EF001C01FF002C020F003C021F0E552FE
:0E272000E552E552E5CFDAFFE7CFD9FF120010
:02272E00D9CF01
:10273000E6FFDACFE6FFE1CFD9FFE2CFDAFF010E05
:10274000E66ED950FA0FE96EFF0EDA20EA6EEECF90
:10275000E6FFEECFE6FFEECFE6FFEFCFE6FF26EC9B
:102760000EF0006E050EE15C02E2E16AE552E16EF8
:0E2770000050E552E5CFDAFFE7CFD9FF1200A7
:02277E00D9CFB1
:10278000E6FFDACFE6FFE1CFD9FFE2CFDAFFE66A74
:10279000D950FA0FE96EFF0EDA20EA6EEECFE6FFAF
:1027A000EECFE6FFEECFE6FFEFCFE6FF26EC0EF032
:1027B000006E050EE15C02E2E16AE552E16E005056
:0C27C000E552E5CFDAFFE7CFD9FF1200A9
:0427CC00FE0EE3CF4B
:1027D0006AF0FF0EE3CF6BF012006BC021F06AC00D
:1027E00020F0350E256E450E266E08EC0EF01E2AE2
:1027F000E86A1F221F9E1FC06BF01EC06AF06AC0ED
:08280000F3FF6BC0F4FF1200AE
:082808001D6A1C6A100EE76E48
:10281000D890203621361C361D3625501C5C26509B
:102820001D5805E325501C5E26501D5A202AE72E10
:04283000F0D71200CB
:0C283400160EF36E00EE00F00F0E01D83F
:102840001200EA6002D0EE6AFCD7F350E960120091
:04285000EE6AFCD759
:0C2854001EEE00F02EEE00F0F86A199C59
:1028600015EC13F003EC00F0D5EC11F0FBD71200DF
:10287000FF0EE350E84E1200000000D000D000D060
:06288000E82EFAD7120059
:0228860002044A
:020000040030CA
:010000001DE2
:0100010003FB
:01000200728B
:010003007C80
:010005008B6F
:00000001FF
